:1011990000A8C0003F065B4F666D7D077F6F0008A2
:0E11A90040014148BF86DBCFE6EDFD87FFEF3A
:040BFE00021A03E8EC
:1011EF00121212BF010B7D647C00AF1BAE1A120EE0
:0111FF00BB34
:0112000022CB
:101133001211D41211591211B77F0A121179E4FF57
:1011430012126A7BFF7A1179EF7F06120E3E12129A
:06115300701210A280FBE7
:04110B00151F151F78
:10110F00121251A81FA60608A607A81FE6FE08E69A
:0F111F00FF4E600BEF24FFFFEE34FFFE12125A5B
:05112E00051F051F2252
:1011590053B1EF43B210121279E4F5D975DA49D2D5
:10116900DE90003F74FFF0A37411F0A3740BF0221A
:080EBB008E228F238C248D256B
:100EC300121251EF4E7066AF25AE2412125AC3E5CB
:100ED30023940AE5229400404BE47B18FAF9F89036
:100EE300119912095E1208B8C006C007AE22AF23DB
:100EF300AB07AA06E4F9F8D007D0061208B8AB0787
:100F0300AA06AFF9EFFEADE97C00E42DFFEC3ECF7E
:100F13002BCF3AAD07FCAF03AE02121201D2D84376
:0F0F2300DA01800612127953DAFE7F02227F0371
:010F3200229C
:0C123C00121251EF4E7002FF227F0122BF
:100A6D00E4F580900079E0FFB40800505F900A81B2
:100A7D00F8282873020A99020A9F020AA5020AABF6
:100A8D00020AB1020ABB020AC5020ACFC2A3C2A260
:100A9D008016C2A3C2A2801AC2A3C2A2801EC2A384
:100AAD00C2A28022C2A3D2A2C2A1C2A08020C2A390
:100ABD00D2A2C2A1D2A08016C2A3D2A2D2A1C2A09C
:100ACD00800CC2A3D2A2D2A1D2A08002D2A3C3EF26
:100ADD00648094885029900079E0FF3395E0FE748E
:100AED00702FF58274003EF583E0FF3395E0FE74C0
:100AFD009D2FF58274113EF583E493F580801E9051
:100B0D000079E0FFB408133395E0FE74702FF58281
:100B1D0074003EF583E0F5808003E4F58090006F6E
:100B2D00E0FF900079E004FEF0D3EF6480F8EE640E
:100B3D0080984014E0D36480948850047408F022A7
:090B4D0090006EE0900079F022A6
:1011D400E4F5937594FF5395F043960F90002A74A9
:0B11E400FFF0A3740AF0A3746DF0226A
:0912480090006EEFF0A3EDF0221E
:10117900900070EFF0A3EDF0A3EBF0A3E525F0A349
:10118900E526F0A3E527F0A3E528F0A3E529F02259
:06126A00900078EFF02275
:100C02004100000A4100290A41006D0A040E000059
:100C120000000114004600670000FFFF8FFFC10DB6
:100C2200C105C108C101C10E60240005FF127CFF8D
:100C3200127CFF127CFF127CFF127CFF127CFF12DF
:100C42007CFF127CFF127CFF127CFF127CFF127C65
:100C52006036002AFF127CFF127CFF1276FF127CA4
:100C6200FF1276FF127CFF1276FF127CFF127CFFCE
:100C7200127CFF1276FF1276FF1276FF1276FF12B7
:0A0C82007CFF127CFF127CFF127C45
:01127C00224F
:031276007F0022D4
:100FD800438E805389F07BE07A287901780090115C
:100FE8009912095E12101FEFF404F58A7BE07A2843
:100FF8007901780090119912095E12101FC3E49FBD
:10100800FFE49EFE74019DFDE49CFC780812094AE9
:071018008F8CD28CD2A922BB
:03000B00020F865B
:040F8600C0E0C0D037
:100F8A00D5080A75084C300D020514D20DA2037259
:100F9A00045036150AE50A7030850C0AD207300A61
:100FAA0017E50D6007150D438F01801D538FFEC293
:100FBA00B5D51615C20A8011050BE50BD394064068
:090FCA0008C203E5136002D2061F
:050FD300D0D0D0E03297
:100F3300300E47C20E90119912095E781012094AB9
:100F43008E1C8F1D900003E0FEA3E0FFE4FCFD7BFD
:100F530019FAF9F812082DC006C007AE1CAF1DAB75
:100F630007AA06E4F9F8D007D00612101F78031277
:100F7300094A900065EEF0A3EFF0900065E0FEA350
:020F8300E0FF8D
:010F85002249
:09125100900067E0FEA3E0FF221B
:09125A00900067EEF0A3EFF02212
:1012010090006BEEF0A3EFF0900069ECF0A3EDF02D
:0112110022BA
:03127900C2B422DA
:03003B00020B565F
:100B5600C0E0C083C082C0D075D000C004C005C04C
:030B660006C007BF
:100B690030DF04C2DF807D30DA04C2DA807630D922
:100B79003DC2D9AFFBEFFEADEB7C00E42DFFEC3EAF
:100B890020000E900001F0A3EFF075DB11D2008078
:100B990053FE900001E0FCA3E0FDC3EF9DFFEE9C36
:100BA900A3F0A3EFF075DB00C200D20E803630D877
:100BB90033C2D8900067E07002A3E06022B2B4901B
:100BC9000069E0FEA3E0F5EAEEF5FAA3E0FEA3E092
:100BD900FF90006AE02FF0900069E03EF08005C2C6
:040BE900B453DAFE29
:100BED00D007D006D005D004D0D0D082D083D0E0AD
:010BFD0032C5
:06127000120FD8D2AF22DC
:100DB3003004047F0180027F00200A047E01800248
:100DC3007E00EE5F6074E515C39509506830023606
:100DD300750D01E515131313541FAB17AA18A919A1
:100DE300F582758300120800FFE515540704FEEF32
:100DF300A806088002C333D8FC30D70575160380D4
:100E03002F751601802AAB17AA18A91975F002E5E8
:100E130015A4F58285F083120800F50DE51575F02C
:100E230002A429F9EA35F0FA900001120800F51638
:0A0E33000515D20A22C204438F10F5
:010E3D002292
:10098000900000E014F0701F740AF0D20590002966
:10099000E014F07012740AF0D20890006DE014F0C8
:1009A0007005740AF0D20190002AA3E0FAA3E0F9DE
:1009B00012097A90002DA3E0FAA3E0F912097A90C7
:1009C0000039A3E0FAA3E0F912097A900045A3E008
:1009D000FAA3E0F912097A900054A3E0FAA3E0F92F
:1009E00012097A90005DA3E0FAA3E0F912097A9067
:1009F000004BA3E0FAA3E0F912097AEF600C900033
:100A00001DA3E0FAA3E0F912097A90004EA3E0FAE0
:100A1000A3E0F912097AEF600E900020A3E0FAA398
:100A2000E0F912097AD20BE512D394004016D512E0
:100A30003030090C900023A3E0FAA3E0F912097A00
:100A4000D20C801D900051A3E0FAA3E0F912097ABC
:100A5000EF600E900023A3E0FAA3E0F912097AD226
:0D0A60000C900005A3E0FAA3E0F902097A6A
:100C940090003FA3E0FAA3E0F912097A900042A37E
:100CA400E0FAA3E0F912097A900033A3E0FAA3E092
:100CB400F912097A900008A3E0FAA3E0F912097A7C
:100CC400900030A3E0FAA3E0F912097AEF600C90E7
:100CD4000011A3E0FAA3E0F912097A900036A3E028
:100CE400FAA3E0F912097AEF600C900017A3E0FA76
:100CF400A3E0F912097A900048A3E0FAA3E0F912FC
:100D0400097AEF600C90001AA3E0FAA3E0F9120943
:100D14007A30060EC206900026A3E0FAA3E0F91288
:030D2400097A2227
:1010630090000BA3E0FAA3E0F912097A90003CA3E5
:10107300E0FAA3E0F912097AEF600C900014A3E000
:10108300FAA3E0F912097A900057A3E0FAA3E0F972
:0F10930012097A90005AA3E0FAA3E0F902097A51
:1010E000AF11AE10AD0FAC0E90006012096E900003
:1010F00064E514F0E4F511F510F50FF50EF5149014
:0B110000000EA3E0FAA3E0F902097A58
:1010A200300705C207120DB3300D05C20D120980BB
:1010B200300505C205120C94300805C208121063EF
:1010C200300105C2011210E0E5112401F511E435E9
:0E10D20010F510E4350FF50FE4350EF50E2283
:100E3E008B228A238924EFB40C005070900E51F847
:100E4E00282873020E75020E7A020E7F020E84029D
:100E5E000E89020E8E020E93020E98020E9D020E47
:100E6E00A2020EA7020EAC900005803590000880FD
:100E7E003090000B802B90000E8026900011802168
:100E8E00900017801C900014801790001A8012900A
:100E9E00001D800D9000208008900023800390009C
:0D0EAE0026E522F0A3E523F0A3E524F022C1
:071263007B017A0079602293
:070C8C00011E0041007A0087
:0D122F0020A409751E0190007A7401F022C0
:02122100151F97
:09122300A81FA61EE4F51EE6FF5B
:03122C00051F2279
:1011B70090003C74FFF0A37412F0A37421F0900028
:0D11C7003974FFF0A37412F0A3742FF0220E
:02121200151FA6
:0A12140090007AE0A81FF6FFE4F056
:03121E00051F2287
:03000000020D27C7
:0C0D2700787FE4F6D8FD758129020D6E7E
:10080000BB010CE58229F582E5833AF583E02250AD
:1008100006E92582F8E622BBFE06E92582F8E222F7
:0D082000E58229F582E5833AF583E4932211
:10082D00E88FF0A4CC8BF0A42CFCE98EF0A42CFC6A
:10083D008AF0EDA42CFCEA8EF0A4CDA8F08BF0A4E8
:10084D002DCC3825F0FDE98FF0A42CCD35F0FCEB47
:10085D008EF0A4FEA9F0EB8FF0A4CFC5F02ECD390C
:0F086D00FEE43CFCEAA42DCE35F0FDE43CFC2279
:10087C0075F008758200EF2FFFEE33FECD33CDCC33
:10088C0033CCC58233C5829BED9AEC99E5829840B6
:10089C000CF582EE9BFEED9AFDEC99FC0FD5F0D693
:1008AC00E4CEFBE4CDFAE4CCF9A88222B800C1B9BD
:1008BC000059BA002DEC8BF084CFCECDFCE5F0CBFB
:1008CC00F97818EF2FFFEE33FEED33FDEC33FCEB34
:1008DC0033FB10D703994004EB99FB0FD8E5E4F9EF
:1008EC00FA227818EF2FFFEE33FEED33FDEC33FCDC
:1008FC00C933C910D7059BE99A4007EC9BFCE99AD0
:10090C00F90FD8E0E4C9FAE4CCFB2275F010EF2F14
:10091C00FFEE33FEED33FDCC33CCC833C810D70714
:10092C009BEC9AE899400AED9BFDEC9AFCE899F84F
:0E093C000FD5F0DAE4CDFBE4CCFAE4C8F922E2
:10101F00C2D5E830E70FB2D5E4C39BFBE49AFAE4FC
:10102F0099F9E498F8EC30E717B2D5121055120879
:10103F00B8E4C39BFBE49AFAE499F9E498F88003C7
:10104F001208B830D50DE4C39FFFE49EFEE49DFD6A
:04105F00E49CFC22EF
:10094A00E86010ECA2E713FCED13FDEE13FEEF13C3
:04095A00FFD8F022B0
:10095E00E493FC740193FD740293FE740393FF22DF
:0C096E00ECF0A3EDF0A3EEF0A3EFF022FC
:06097A008A838982E47308
:100D3300021133E493A3F8E493A34003F68001F292
:100D430008DFF48029E493A3F85407240CC8C333C1
:100D5300C4540F4420C8834004F456800146F6DF90
:100D6300E4800B0102040810204080900BFEE47E17
:100D7300019360BCA3FF543F30E509541FFEE49385
:100D8300A360010ECF54C025E060A840B8E493A34C
:100D9300FAE493A3F8E493A3C8C582C8CAC583CA77
:100DA300F0A3C8C582C8CAC583CADFE9DEE780BE2F
:010C93000060
:00000001FF
