:1011640000A8C0003F065B4F666D7D077F6F0008D7
:0E11740040014148BF86DBCFE6EDFD87FFEF6F
:100BFE00012D00012E00012F00012A00012B000102
:050C0E002C0001300084
:1010B200052FE52FC3940A4005E4F52F052EE52EF2
:1010C200C3940A4005E4F52E052DE52DC3940A408C
:1010D20003E4F52D852B2575260C852D27852E28D5
:0C10E200852F29AB2A7D0CAF2C02114495
:1010EE00052BE52BC3940A4005E4F52B052AE52ACA
:1010FE00C394064005E4F52A052CE52CC3940A405A
:0B110E0005E4F52C0530AF300211D0D5
:100FF5001211827D07E4FF1211AEE4F52575260C6A
:10100500F527F528F529FB7D0CFF121144AF3012A9
:1010150011D07BFF7A1079B2E4FF120E487BFF7A7C
:101025001079EE7F03120E481211D612107480FB50
:100A6D00E4F580900079E0FFB40800505F900A81B2
:100A7D00F8282873020A99020A9F020AA5020AABF6
:100A8D00020AB1020ABB020AC5020ACFC2A3C2A260
:100A9D008016C2A3C2A2801AC2A3C2A2801EC2A384
:100AAD00C2A28022C2A3D2A2C2A1C2A08020C2A390
:100ABD00D2A2C2A1D2A08016C2A3D2A2D2A1C2A09C
:100ACD00800CC2A3D2A2D2A1D2A08002D2A3C3EF26
:100ADD00648094885029900079E0FF3395E0FE748E
:100AED00702FF58274003EF583E0FF3395E0FE74C0
:100AFD00682FF58274113EF583E493F580801E9086
:100B0D000079E0FFB408133395E0FE74702FF58281
:100B1D0074003EF583E0F5808003E4F58090006F6E
:100B2D00E0FF900079E004FEF0D3EF6480F8EE640E
:100B3D0080984014E0D36480948850047408F022A7
:090B4D0090006EE0900079F022A6
:10118200E4F5937594FF5395F043960F90002A74FB
:0B119200FFF0A3740AF0A3746DF022BC
:0911AE0090006EEFF0A3EDF022B9
:10114400900070EFF0A3EDF0A3EBF0A3E525F0A37E
:10115400E526F0A3E527F0A3E528F0A3E529F0228E
:0611D000900078EFF02210
:100C13004100000A4100290A41006D0A040E000048
:100C230000000114004600670000FFFF8FFFC10DA5
:100C3300C105C108C101C10E60240005FF11E2FF17
:100C430011E2FF11E2FF11E2FF11E2FF11E2FF11D6
:100C5300E2FF11E2FF11E2FF11E2FF11E2FF11E2F5
:100C63006036002AFF11E2FF11E2FF11DCFF11E2FF
:100C7300FF11DCFF11E2FF11DCFF11E2FF11E2FFC4
:100C830011E2FF11DCFF11DCFF11DCFF11DCFF11AE
:0A0C9300E2FF11E2FF11E2FF11E29F
:0111E20022EA
:0311DC007F00226F
:100F6A00438E805389F07BE07A28790178009011CA
:100F7A0064120890120FB1EFF404F58A7BE07A2824
:100F8A0079017800901164120890120FB1C3E49F9E
:100F9A00FFE49EFE74019DFDE49CFC780812087C27
:070FAA008F8CD28CD2A9222A
:03000B00020F18C9
:040F1800C0E0C0D0A5
:100F1C00D5080A75084C300D020514D20DA20372C7
:100F2C00045036150AE50A7030850C0AD207300ACF
:100F3C0017E50D6007150D438F01801D538FFEC201
:100F4C00B5D51615C20A8011050BE50BD3940640D6
:090F5C0008C203E5136002D2068D
:050F6500D0D0D0E03205
:100EC500300E47C20E901164120890781012087CFB
:100ED5008E1A8F1B900003E0FEA3E0FFE4FCFD7B70
:100EE50019FAF9F812082DC006C007AE1AAF1BABE8
:100EF50007AA06E4F9F8D007D006120FB178031255
:100F0500087C900065EEF0A3EFF0900065E0FEA38D
:020F1500E0FFFB
:010F170022B7
:0911B700900067E0FEA3E0FF22B6
:0911C000900067EEF0A3EFF022AD
:10119D0090006BEEF0A3EFF0900069ECF0A3EDF092
:0111AD00221F
:0311DF00C2B42275
:03003B00020B565F
:100B5600C0E0C083C082C0D075D000C004C005C04C
:030B660006C007BF
:100B690030DF04C2DF807D30DA04C2DA807630D922
:100B79003DC2D9AFFBEFFEADEB7C00E42DFFEC3EAF
:100B890020000E900001F0A3EFF075DB11D2008078
:100B990053FE900001E0FCA3E0FDC3EF9DFFEE9C36
:100BA900A3F0A3EFF075DB00C200D20E803630D877
:100BB90033C2D8900067E07002A3E06022B2B4901B
:100BC9000069E0FEA3E0F5EAEEF5FAA3E0FEA3E092
:100BD900FF90006AE02FF0900069E03EF08005C2C6
:040BE900B453DAFE29
:100BED00D007D006D005D004D0D0D082D083D0E0AD
:010BFD0032C5
:0611D600120F6AD2AF22E5
:100DBD003004047F0180027F00200A047E0180023E
:100DCD007E00EE5F6074E515C395095068300236FC
:100DDD00750D01E515131313541FAB17AA18A91997
:100DED00F582758300120800FFE515540704FEEF28
:100DFD00A806088002C333D8FC30D70575160380CA
:100E0D002F751601802AAB17AA18A91975F002E5DE
:100E1D0015A4F58285F083120800F50DE51575F022
:100E2D0002A429F9EA35F0FA900001120800F5162E
:0A0E3D000515D20A22C204438F10EB
:010E47002288
:10098000900000E014F0701F740AF0D20590002966
:10099000E014F07012740AF0D20890006DE014F0C8
:1009A0007005740AF0D20190002AA3E0FAA3E0F9DE
:1009B0001208AC90002DA3E0FAA3E0F91208AC9065
:1009C0000039A3E0FAA3E0F91208AC900045A3E0D7
:1009D000FAA3E0F91208AC900054A3E0FAA3E0F9FE
:1009E0001208AC90005DA3E0FAA3E0F91208AC9005
:1009F000004BA3E0FAA3E0F91208ACEF600C900002
:100A00001DA3E0FAA3E0F91208AC90004EA3E0FAAF
:100A1000A3E0F91208ACEF600E900020A3E0FAA367
:100A2000E0F91208ACD20BE512D394004016D512AF
:100A30003030090C900023A3E0FAA3E0F91208ACCF
:100A4000D20C801D900051A3E0FAA3E0F91208AC8B
:100A5000EF600E900023A3E0FAA3E0F91208ACD2F5
:0D0A60000C900005A3E0FAA3E0F90208AC39
:100C9E0090003FA3E0FAA3E0F91208AC900042A343
:100CAE00E0FAA3E0F91208AC900033A3E0FAA3E057
:100CBE00F91208AC900008A3E0FAA3E0F91208AC10
:100CCE00900030A3E0FAA3E0F91208ACEF600C90AC
:100CDE000011A3E0FAA3E0F91208AC900036A3E0ED
:100CEE00FAA3E0F91208ACEF600C900017A3E0FA3B
:100CFE00A3E0F91208AC900048A3E0FAA3E0F912C1
:100D0E0008ACEF600C90001AA3E0FAA3E0F9120809
:100D1E00AC30060EC206900026A3E0FAA3E0F9124C
:030D2E0008AC22EC
:1010350090000BA3E0FAA3E0F91208AC90003CA3E2
:10104500E0FAA3E0F91208ACEF600C900014A3E0FD
:10105500FAA3E0F91208AC900057A3E0FAA3E0F96F
:0F1065001208AC90005AA3E0FAA3E0F90208AC1D
:10111900AF11AE10AD0FAC0E9000601208A0900098
:1011290064E514F0E4F511F510F50FF50EF51490DA
:0B113900000EA3E0FAA3E0F90208ACEE
:10107400300705C207120DBD300D05C20D120980DF
:10108400300505C205120C9E300805C20812103541
:10109400300105C201121119E5112401F511E435DD
:0E10A40010F510E4350FF50FE4350EF50E22B1
:100E48008B228A238924EFB40C005070900E5BF833
:100E5800282873020E7F020E84020E89020E8E026B
:100E68000E93020E98020E9D020EA2020EA7020E0B
:100E7800AC020EB1020EB6900005803590000880D5
:100E88003090000B802B90000E802690001180215E
:100E9800900017801C900014801790001A80129000
:100EA800001D800D90002080089000238003900092
:0D0EB80026E522F0A3E523F0A3E524F022B7
:0711C9007B017A007960222E
:03000000020D31BD
:0C0D3100787FE4F6D8FD758130020D7863
:10080000BB010CE58229F582E5833AF583E02250AD
:1008100006E92582F8E622BBFE06E92582F8E222F7
:0D082000E58229F582E5833AF583E4932211
:10082D00E88FF0A4CC8BF0A42CFCE98EF0A42CFC6A
:10083D008AF0EDA42CFCEA8EF0A4CDA8F08BF0A4E8
:10084D002DCC3825F0FDE98FF0A42CCD35F0FCEB47
:10085D008EF0A4FEA9F0EB8FF0A4CFC5F02ECD390C
:0F086D00FEE43CFCEAA42DCE35F0FDE43CFC2279
:100FB100C2D5E830E70FB2D5E4C39BFBE49AFAE46B
:100FC10099F9E498F8EC30E717B2D5120FE7120857
:100FD100EEE4C39BFBE49AFAE499F9E498F8800300
:100FE1001208EE30D50DE4C39FFFE49EFEE49DFDA3
:040FF100E49CFC225E
:10087C00E86010ECA2E713FCED13FDEE13FEEF1392
:04088C00FFD8F0227F
:10089000E493FC740193FD740293FE740393FF22AE
:0C08A000ECF0A3EDF0A3EEF0A3EFF022CB
:0608AC008A838982E473D7
:100D3D00020FF5E493A3F8E493A34003F68001F2C8
:100D4D0008DFF48029E493A3F85407240CC8C333B7
:100D5D00C4540F4420C8834004F456800146F6DF86
:100D6D00E4800B0102040810204080900BFEE47E0D
:100D7D00019360BCA3FF543F30E509541FFEE4937B
:100D8D00A360010ECF54C025E060A840B8E493A342
:100D9D00FAE493A3F8E493A3C8C582C8CAC583CA6D
:100DAD00F0A3C8C582C8CAC583CADFE9DEE780BE25
:010C9D000056
:1008B20075F008758200EF2FFFEE33FECD33CDCCFD
:1008C20033CCC58233C5829BED9AEC99E582984080
:1008D2000CF582EE9BFEED9AFDEC99FC0FD5F0D65D
:1008E200E4CEFBE4CDFAE4CCF9A88222B800C1B987
:1008F2000059BA002DEC8BF084CFCECDFCE5F0CBC5
:10090200F97818EF2FFFEE33FEED33FDEC33FCEBFD
:1009120033FB10D703994004EB99FB0FD8E5E4F9B8
:10092200FA227818EF2FFFEE33FEED33FDEC33FCA5
:10093200C933C910D7059BE99A4007EC9BFCE99A99
:10094200F90FD8E0E4C9FAE4CCFB2275F010EF2FDE
:10095200FFEE33FEED33FDCC33CCC833C810D707DE
:100962009BEC9AE899400AED9BFDEC9AFCE899F819
:0E0972000FD5F0DAE4CDFBE4CCFAE4C8F922AC
:00000001FF
