:1012FF0000A8C0003F065B4F666D7D077F6F00083B
:0E130F0040014148BF86DBCFE6EDFD87FFEFD2
:100C8500012600012700012800012200012300019F
:080C95002400012900012500E3
:10118800E52570240528E528C3940A4005E4F528D8
:101198000527E527C3940A4005E4F5270526E52633
:1011A800C3940A4003E4F52685232D752E0C852665
:1011B8002F852730852831AB227D0CAF240212DF22
:10128500E52570260523E523C3940A4005E4F523E7
:101295000522E522C394064005E4F5220524E5244C
:0F12A500C3940A4005E4F5240529AF290213A2DA
:0B137400E4FF1211C8BF01036325FF56
:01137F00224B
:1010AF0012133A12131D7D07E4FF121380E4F52D7E
:1010BF00752E0CF52FF530F531FB7D0CFF1212DF7D
:1010CF00AF291213A27BFF7A117988E4FF120F8DDB
:1010DF007BFF7A1279857F03120F8D7BFF7A13794D
:0E10EF00747F04120F8D1213A812124780FB9B
:100B9C00E4F580900079E0FFB40800505F900BB052
:100BAC00F8282873020BC8020BCE020BD4020BDA06
:100BBC00020BE0020BEA020BF4020BFEC2A3C2A270
:100BCC008016C2A3C2A2801AC2A3C2A2801EC2A354
:100BDC00C2A28022C2A3D2A2C2A1C2A08020C2A360
:100BEC00D2A2C2A1D2A08016C2A3D2A2D2A1C2A06C
:100BFC00800CC2A3D2A2D2A1D2A08002D2A3C3EFF6
:100C0C00648094885029900079E0FF3395E0FE745D
:100C1C00702FF58274003EF583E0FF3395E0FE748F
:100C2C00032FF58274133EF583E493F580801E90B8
:100C3C000079E0FFB408133395E0FE74702FF58251
:100C4C0074003EF583E0F5808003E4F58090006F3E
:100C5C00E0FF900079E004FEF0D3EF6480F8EE64DE
:100C6C0080984014E0D36480948850047408F02277
:090C7C0090006EE0900079F02276
:10133A00E4F5937594FF5395F043960F90002A7441
:0B134A00FFF0A3740BF0A3749CF022D2
:0913800090006EEFF0A3EDF022E5
:1012DF00900070EFF0A3EDF0A3EBF0A3E52DF0A3DA
:1012EF00E52EF0A3E52FF0A3E530F0A3E531F022D2
:0613A200900078EFF0223C
:100C9D00011C0049007B94940094940094940041AD
:030CAD00007A1EAC
:02098C00151D37
:10098E0020B20690007BE014F020B30690007EE0CB
:10099E0014F0209706900081E014F090007AE01495
:1009AE00F06003020AAC741EF0A81DE4F6A81DE662
:1009BE00FFC3648094834003020AACEF3395E0FEDC
:1009CE0090007B75F003EF1208ACEE75F003A425D2
:1009DE0083F583E0C39480503990007C75F003EF6B
:1009EE001208ACEE75F003A42583F583E0D3948052
:1009FE00405AE6FF3395E0FE90007D75F003EF124E
:100A0E0008ACEE75F003A42583F5837401F0F51C94
:100A1E00803AA81DE6FF3395E0FE90007C75F0034A
:100A2E00EF1208ACEE75F003A42583F583E0C394B2
:100A3E0080501990007D75F003EF1208ACEE75F042
:100A4E0003A42583F5837402F0751C01A81DE6FF2F
:100A5E00FD3395E0FC90007B75F003ED1208ACECD5
:100A6E0075F003A42583F583E0FE90007C75F003FA
:100A7E00ED1208ACEC75F003A42583F583EEF0EFD0
:100A8E003395E0FE90007B75F003EF1208ACEE7527
:0E0A9E00F003A42583F5837494F0060209BBCF
:030AAC00051D2203
:02136600151D53
:09136800A81DA61CE4F51CE6FF1B
:03137100051D2235
:10131D0090003074FFF0A37413F0A37466F0900086
:0D132D002D74FFF0A37409F0A3748CF0225E
:1011C800EF600764016003BF0233EFFD3395E0FC75
:1011D80090007D75F003ED1208ACEC75F003A425C2
:1011E80083F583E0FE90007D75F003ED1208ACEC0A
:0F11F80075F003A42583F583E4F0AF06227F038F
:0112070022C4
:100CB0004100000A4100290A41006D0A040E0000AB
:100CC00000000114004600670000FFFF8FFFC10D08
:100CD000C105C108C101C10E60240005FF13B4FFA6
:100CE00013B4FF13B4FF13B4FF13B4FF13B4FF1313
:100CF000B4FF13B4FF13B4FF13B4FF13B4FF13B462
:100D00006036002AFF13B4FF13B4FF13AEFF13B411
:100D1000FF13AEFF13B4FF13AEFF13B4FF13B4FF02
:100D200013B4FF13AEFF13AEFF13AEFF13AEFF13EA
:0A0D3000B4FF13B4FF13B4FF13B4B3
:0113B4002216
:0313AE007F00229B
:1010FD00438E805389F07BE07A2879017800901235
:10110D00FF120890121144EFF404F58A7BE07A285F
:10111D00790178009012FF120890121144C3E49FD8
:10112D00FFE49EFE74019DFDE49CFC780812087C92
:07113D008F8CD28CD2A92295
:03000B0002105D83
:04105D00C0E0C0D05F
:10106100D5080A75084C300D020514D20DA2037281
:10107100045036150AE50A7030850C0AD207300A89
:1010810017E50D6007150D438F01801D538FFEC2BB
:10109100B5D51615C20A8011050BE50BD394064090
:0910A10008C203E5136002D20647
:0510AA00D0D0D0E032BF
:10100A00300E47C20E9012FF120890781012087C18
:10101A008E1A8F1B900003E0FEA3E0FFE4FCFD7B29
:10102A0019FAF9F812082DC006C007AE1AAF1BABA1
:10103A0007AA06E4F9F8D007D00612114478031279
:10104A00087C900065EEF0A3EFF0900065E0FEA347
:02105A00E0FFB5
:01105C002271
:09138900900067E0FEA3E0FF22E2
:09139200900067EEF0A3EFF022D9
:1013550090006BEEF0A3EFF0900069ECF0A3EDF0D8
:011365002265
:0313B100C2B422A1
:03003B00020D3B78
:100D3B00C0E0C083C082C0D075D000C004C005C065
:030D4B0006C007D8
:100D4E0030DF04C2DF807D30DA04C2DA807630D93B
:100D5E003DC2D9AFFBEFFEADEB7C00E42DFFEC3EC8
:100D6E0020000E900001F0A3EFF075DB11D2008091
:100D7E0053FE900001E0FCA3E0FDC3EF9DFFEE9C4F
:100D8E00A3F0A3EFF075DB00C200D20E803630D890
:100D9E0033C2D8900067E07002A3E06022B2B49034
:100DAE000069E0FEA3E0F5EAEEF5FAA3E0FEA3E0AB
:100DBE00FF90006AE02FF0900069E03EF08005C2DF
:040DCE00B453DAFE42
:100DD200D007D006D005D004D0D0D082D083D0E0C6
:010DE20032DE
:0613A8001210FDD2AF227D
:100F02003004047F0180027F00200A047E018002F7
:100F12007E00EE5F6074E515C395095068300236B5
:100F2200750D01E515131313541FAB17AA18A91950
:100F3200F582758300120800FFE515540704FEEFE1
:100F4200A806088002C333D8FC30D7057516038083
:100F52002F751601802AAB17AA18A91975F002E598
:100F620015A4F58285F083120800F50DE51575F0DC
:100F720002A429F9EA35F0FA900001120800F516E8
:0A0F82000515D20A22C204438F10A5
:010F8C002242
:100AAF00900000E014F0701F740AF0D20590002936
:100ABF00E014F07012740AF0D20890006DE014F098
:100ACF007005740AF0D20190002AA3E0FAA3E0F9AE
:100ADF001208B890002DA3E0FAA3E0F91208B8901D
:100AEF000039A3E0FAA3E0F91208B8900045A3E09B
:100AFF00FAA3E0F91208B8900054A3E0FAA3E0F9C2
:100B0F001208B890005DA3E0FAA3E0F91208B890BC
:100B1F00004BA3E0FAA3E0F91208B8EF600C9000C5
:100B2F001DA3E0FAA3E0F91208B890004EA3E0FA73
:100B3F00A3E0F91208B8EF600E900020A3E0FAA32B
:100B4F00E0F91208B8D20BE512D394004016D51273
:100B5F003030090C900023A3E0FAA3E0F91208B893
:100B6F00D20C801D900051A3E0FAA3E0F91208B84F
:100B7F00EF600E900023A3E0FAA3E0F91208B8D2B9
:0D0B8F000C900005A3E0FAA3E0F90208B8FD
:100DE30090003FA3E0FAA3E0F91208B8900042A3F1
:100DF300E0FAA3E0F91208B8900033A3E0FAA3E005
:100E0300F91208B8900008A3E0FAA3E0F91208B8B1
:100E1300900030A3E0FAA3E0F91208B8EF600C9059
:100E23000011A3E0FAA3E0F91208B8900036A3E09A
:100E3300FAA3E0F91208B8EF600C900017A3E0FAE8
:100E4300A3E0F91208B8900048A3E0FAA3E0F9126E
:100E530008B8EF600C90001AA3E0FAA3E0F91208B7
:100E6300B830060EC206900026A3E0FAA3E0F912FA
:030E730008B8229A
:1012080090000BA3E0FAA3E0F91208B890003CA301
:10121800E0FAA3E0F91208B8EF600C900014A3E01C
:10122800FAA3E0F91208B8900057A3E0FAA3E0F98E
:0F1238001208B890005AA3E0FAA3E0F90208B830
:1012B400AF11AE10AD0FAC0E9000601208A09000FC
:1012C40064E514F0E4F511F510F50FF50EF514903E
:0B12D400000EA3E0FAA3E0F90208B846
:10124700300705C207120F02300D05C20D120AAF93
:10125700300505C205120DE3300805C20812120851
:10126700300105C2011212B4E5112401F511E4356C
:0E12770010F510E4350FF50FE4350EF50E22DC
:100F8D008B2A8A2B892CEFB40C005070900FA0F88F
:100F9D00282873020FC4020FC9020FCE020FD3020D
:100FAD000FD8020FDD020FE2020FE7020FEC020F66
:100FBD00F1020FF6020FFB900005803590000880BE
:100FCD003090000B802B90000E8026900011802118
:100FDD00900017801C900014801790001A801290BA
:100FED00001D800D9000208008900023800390004C
:0D0FFD0026E52AF0A3E52BF0A3E52CF02259
:07139B007B017A007960225A
:03000000020E7677
:0C0E7600787FE4F6D8FD758131020EBDD6
:10080000BB010CE58229F582E5833AF583E02250AD
:1008100006E92582F8E622BBFE06E92582F8E222F7
:0D082000E58229F582E5833AF583E4932211
:10082D00E88FF0A4CC8BF0A42CFCE98EF0A42CFC6A
:10083D008AF0EDA42CFCEA8EF0A4CDA8F08BF0A4E8
:10084D002DCC3825F0FDE98FF0A42CCD35F0FCEB47
:10085D008EF0A4FEA9F0EB8FF0A4CFC5F02ECD390C
:0F086D00FEE43CFCEAA42DCE35F0FDE43CFC2279
:10114400C2D5E830E70FB2D5E4C39BFBE49AFAE4D6
:1011540099F9E498F8EC30E717B2D512117A12082D
:10116400FAE4C39BFBE49AFAE499F9E498F880035F
:101174001208FA30D50DE4C39FFFE49EFEE49DFD02
:04118400E49CFC22C9
:10087C00E86010ECA2E713FCED13FDEE13FEEF1392
:04088C00FFD8F0227F
:10089000E493FC740193FD740293FE740393FF22AE
:0C08A000ECF0A3EDF0A3EEF0A3EFF022CB
:0C08AC00A42582F582E5F03583F5832257
:0608B8008A838982E473CB
:100E82000210AFE493A3F8E493A34003F68001F2C7
:100E920008DFF48029E493A3F85407240CC8C33371
:100EA200C4540F4420C8834004F456800146F6DF40
:100EB200E4800B0102040810204080900C85E47E3F
:100EC200019360BCA3FF543F30E509541FFEE49335
:100ED200A360010ECF54C025E060A840B8E493A3FC
:100EE200FAE493A3F8E493A3C8C582C8CAC583CA27
:100EF200F0A3C8C582C8CAC583CADFE9DEE780BEDF
:010D3A0000B8
:1008BE0075F008758200EF2FFFEE33FECD33CDCCF1
:1008CE0033CCC58233C5829BED9AEC99E582984074
:1008DE000CF582EE9BFEED9AFDEC99FC0FD5F0D651
:1008EE00E4CEFBE4CDFAE4CCF9A88222B800C1B97B
:1008FE000059BA002DEC8BF084CFCECDFCE5F0CBB9
:10090E00F97818EF2FFFEE33FEED33FDEC33FCEBF1
:10091E0033FB10D703994004EB99FB0FD8E5E4F9AC
:10092E00FA227818EF2FFFEE33FEED33FDEC33FC99
:10093E00C933C910D7059BE99A4007EC9BFCE99A8D
:10094E00F90FD8E0E4C9FAE4CCFB2275F010EF2FD2
:10095E00FFEE33FEED33FDCC33CCC833C810D707D2
:10096E009BEC9AE899400AED9BFDEC9AFCE899F80D
:0E097E000FD5F0DAE4CDFBE4CCFAE4C8F922A0
:00000001FF
