:101FD10000A8C0003F065B4F666D7D077F6F00085C
:0F1FE1004001414831BF86DBCFE6EDFD87FFEFC2
:10136500010E05010D00081231202720312026200D
:0E137500030FAA5500010C0004080000000040
:0F2056008F117B007A00790F7D037C00021F69D8
:0C20E500122065BF01057F011220562269
:0E209200E4FF121DCFBF01057F03122056226E
:1019CD007F05121D458F357F02121D458F367F0114
:1019DD00121D458F377F04121D458F387F03121D51
:1019ED0045E535B401067408250CF806E536B40155
:1019FD00067408250CF816E538B40102150CE53708
:101A0D00B40102050CEF64017034E508B40121E561
:101A1D0009B4091CE50AB40917E50BB406127F08D1
:101A2D00122056750B0A750A0A75090A75080A22DD
:0E1A3D007F07122056E4F50BF50AF509F508AF
:011A4B002278
:101CB50012212C78357C007D007E007F0A1208D029
:101CC50075420A850843850944850A45850B467B87
:101CD5000A7D0A7F0A121FB1C3E53C940AE53B94CD
:101CE5000050057F09122056D3E53C94C8E53B9486
:081CF5000040057F0A12205691
:011CFD0022C4
:1018240012202A121F9112207412200D121FF07F11
:1018340098121E8C7FB07E047D007C00121B417DBB
:1018440007E4FF122111754210E4F54375440A754B
:1018540045027546047B077D0A7F08121FB1AF0E4F
:101864001221407B007A007912753A00753B0875A5
:101874003CF07DFA7FA7121BB87F01121F417BFF4A
:101884007A2079E57F06121A4C7BFF7A2079927FC1
:1018940004121A4C7BFF7A1979CD7F07121A4C7BFC
:1018A400FF7A1C79B57F03121A4C122146121E4E80
:0218B40080FBB7
:092108008B88898C88898F8889F5
:1013830052007A86860086860086860086860086D8
:09139300860086860041006F0906
:03002B0002213A75
:06213A0053BCEFD20F328E
:020E400015514A
:100E4200200F03020FE9C20F90006EE0B4090040C8
:100E520003020FCB900E5DF8282873020EA4020E37
:100E620078020E8A020EB6020E78020E8A020ECDA9
:100E7200020E78020E8AAFBDEFFEADBE7C00E42DFD
:100E8200FFEC3E900070803CAFBDEFFEADBE7C003B
:100E9200E42DFFEC3E900072F0A3EFF0751A010210
:100EA2000FD1AFBDEFFEADBE7C00E42DFFEC3E9056
:100EB20000748010AFBDEFFEADBE7C00E42DFFECF0
:100EC2003E900076F0A3EFF0020FD1AFBDEFFEAD82
:100ED200BE7C00E42DFFEC3E900078F0A3EFF09092
:100EE2000078E0FEA3E07807CEC313CE13D8F9A8AA
:100EF20051F6C394065013A851E675F003A4247A60
:100F0200F582E43400F583E014F090006FE014F011
:100F12006003020FD17409F0A851E4F6A851E6FF6C
:100F2200C394064003020FD1EF75F003A4247AF5AF
:100F320082E43400F583E0C39480502AE6FF75F022
:100F420003A4247BF582E43400F583E0D39480404B
:100F520040EF75F003A4247CF582E43400F5837439
:100F620001F0F51B802BA851E6FF75F003A4247B4A
:100F7200F582E43400F583E0C394805014EF75F0F9
:100F820003A4247CF582E43400F5837402F0751B1B
:100F920001A851E6FF75F003A4247AF582E4340037
:100FA200F583E0FEEF75F003A4247BF582E43400C0
:100FB200F583EEF0E675F003A4247AF582E43400BA
:100FC200F5837486F006020F1E90006E74FFF09097
:100FD200006EE0D39407400374FFF090006EE004CB
:070FE200F090210893F5BC1B
:030FE9000551228D
:0220A0001551D8
:0920A200A851A61BE4F51BE6FFA2
:0320AB00055122BA
:0220AE001551CA
:0920B000A851A61AE4F51AE6FF96
:0320B900055122AC
:101E8C008F9D75BC88439720D2AD90004574FFF0B0
:101E9C00A3740EF0A37440F0A374FFF0A37420F0AD
:101EAC00A374A0F0A374FFF0A37420F0A374AEF09D
:011EBC002203
:07212C007B017A00797022AB
:101D4500C3EF64809480403BD3EF64809485503327
:101D5500EFFD3395E0FC90007C75F003ED120B3838
:101D6500EC75F003A42583F583E0FE90007C75F007
:101D750003ED120B38EC75F003A42583F583E4F02D
:051D8500AF06227F0300
:011D8A002236
:041F190015511551F8
:101F1D0012211AA851A60608A607A851E6FE08E642
:0F1F2D00FF4E600BEF24FFFFEE34FFFE12212367
:051F3C000551055122D2
:101F910053B1EF43B210122155E4F5D975DA49D2A4
:101FA100DE90003F74FFF0A3741FF0A37419F022B8
:081AC9008E3B8F3C8C3D8D3EED
:101AD10012211AEF4E7066AF3EAE3D122123C3E5CF
:101AE1003C940AE53B9400404BE47B18FAF9F890EA
:101AF1001FD1120B1C120A63C006C007AE3BAF3CDC
:101B0100AB07AA06E4F9F8D007D006120A63AB07BF
:101B1100AA06AFF9EFFEADE97C00E42DFFEC3ECF64
:101B21002BCF3AAD07FCAF03AE02122045D2D8430A
:0F1B3100DA01800612215553DAFE7F02227F036C
:011B40002282
:0C20F10012211AEF4E7002FF227F012224
:10155600E4F5809000BCE0FFB40800505F90156A87
:10156600F828287302158202158802158E02159432
:1015760002159A0215A40215AE0215B8C2A3C2A29C
:101586008016C2A3C2A2801AC2A3C2A2801EC2A390
:10159600C2A28022C2A3D2A2C2A1C2A08020C2A39C
:1015A600D2A2C2A1D2A08016C2A3D2A2D2A1C2A0A8
:1015B600800CC2A3D2A2D2A1D2A08002D2A3C3EF32
:1015C6006480948850299000BCE0FF3395E0FE7457
:1015D600B32FF58274003EF583E0FF3395E0FE7489
:1015E600D52FF582741F3EF583E493F580801E9017
:1015F60000BCE0FFB408133395E0FE74B32FF58208
:1016060074003EF583E0F5808003E4F5809000B237
:10161600E0FF9000BCE004FEF0D3EF6480F8EE64D7
:1016260080984014E0D36480948850047408F022B3
:091636009000B1E09000BCF0222C
:10202A00E4F5937594FF5395F043960F90002A7444
:0B203A00FFF0A37415F0A37456F02211
:092111009000B1EFF0A3EDF02203
:101FB1009000B3EFF0A3EDF0A3EBF0A3E542F0A3A3
:101FC100E543F0A3E544F0A3E545F0A3E546F0229F
:062140009000BBEFF0224D
:10139C00011E004900BE9494009494009494004162
:0313AC0000BD1E63
:02124200155144
:1012440020B2069000BEE014F020B3069000C1E086
:1012540014F02097069000C4E014F09000BDE01450
:10126400F06003021362741EF0A851E4F6A851E67C
:10127400FFC3648094834003021362EF3395E0FE5E
:101284009000BE75F003EF120B38EE75F003A42541
:1012940083F583E0C3948050399000BF75F003EF69
:1012A400120B38EE75F003A42583F583E0D3948004
:1012B400405AE6FF3395E0FE9000C075F003EF124C
:1012C4000B38EE75F003A42583F5837401F0F51E45
:1012D400803AA851E6FF3395E0FE9000BF75F00315
:1012E400EF120B38EE75F003A42583F583E0C39465
:1012F4008050199000C075F003EF120B38EE75F0B2
:1013040003A42583F5837402F0751E01A851E6FF3A
:10131400FD3395E0FC9000BE75F003ED120B38EC44
:1013240075F003A42583F583E0FE9000BF75F003F8
:10133400ED120B38EC75F003A42583F583EEF0EF82
:101344003395E0FE9000BE75F003EF120B38EE7596
:0E135400F003A42583F5837494F00602127151
:0313620005512210
:0220BC001551BC
:0920BE00A851A61EE4F51EE6FF80
:0320C7000551229E
:101FF00090003074FFF0A37420F0A374BCF0900044
:0D2000002D74FFF0A37412F0A37442F022BF
:101DCF00EF600764016003BF0233EFFD3395E0FC62
:101DDF009000C075F003ED120B38EC75F003A425DD
:101DEF0083F583E0FE9000C075F003ED120B38EC25
:0F1DFF0075F003A42583F583E4F0AF06227F037C
:011E0E0022B1
:1013AF004100000A4100290A41006D0A042900008A
:1013BF000000012F004600670000FFFF8FFFC10DE7
:1013CF00C105C108C101C10E60240005FF2158FFEE
:1013DF002158FF2158FF2158FF2158FF2158FF2185
:1013EF0058FF2158FF2158FF2158FF2158FF21583E
:1013FF006036002AFF2158FF2158FF2152FF215844
:10140F00FF2152FF2158FF2152FF2158FF2158FF82
:10141F002158FF2152FF2152FF2152FF2152FF215C
:0A142F0058FF2158FF2158FF2158F3
:012158002264
:032152007F0022E9
:101CFE00438E805389F07BE07A2879017800901F1B
:101D0E00D1120B1C121D8BEFF404F58A7BE07A289E
:101D1E0079017800901FD1120B1C121D8BC3E49F0A
:101D2E00FFE49EFE74019DFDE49CFC7808120B08F6
:071D3E008F8CD28CD2A92288
:03000B00021C6371
:041C6300C0E0C0D04D
:101C6700D5230A75234C300D02052FD20DA203721E
:101C77000450361525E5257030852725D207300A0B
:101C870017E52860071528438F01801D538FFEC273
:101C9700B5D53115C20A80110526E526D39406402D
:091CA70008C203E52E6002D2061A
:051CB000D0D0D0E032AD
:101C1000300E47C20E901FD1120B1C7810120B0809
:101C20008E1C8F1D900003E0FEA3E0FFE4FCFD7B13
:101C300019FAF9F81209D8C006C007AE1CAF1DABDF
:101C400007AA06E4F9F8D007D006121D8B78031214
:101C50000B08900065EEF0A3EFF0900065E0FEA3A6
:021C6000E0FFA3
:011C6200225F
:09211A00900067E0FEA3E0FF2243
:09212300900067EEF0A3EFF0223A
:1020450090006BEEF0A3EFF0900069ECF0A3EDF0DB
:012055002268
:03215500C2B422EF
:03003B000216E9C1
:1016E900C0E0C083C082C0D075D000C004C005C0AE
:0316F90006C00721
:1016FC0030DF04C2DF807D30DA04C2DA807630D984
:10170C003DC2D9AFFBEFFEADEB7C00E42DFFEC3E10
:10171C0020000E900001F0A3EFF075DB11D20080D9
:10172C0053FE900001E0FCA3E0FDC3EF9DFFEE9C97
:10173C00A3F0A3EFF075DB00C200D20E803630D8D8
:10174C0033C2D8900067E07002A3E06022B2B4907C
:10175C000069E0FEA3E0F5EAEEF5FAA3E0FEA3E0F3
:10176C00FF90006AE02FF0900069E03EF08005C227
:04177C00B453DAFE8A
:10178000D007D006D005D004D0D0D082D083D0E00E
:011790003226
:06214600121CFED2AF22C4
:101942003004047F0180027F00200A047E018002AD
:101952007E00EE5F6074E530C39524506830023635
:10196200752801E530131313541FAB32AA33A9347F
:10197200F5827583001208F6FFE530540704FEEF86
:10198200A806088002C333D8FC30D705753103801E
:101992002F753101802AAB32AA33A93475F002E5E2
:1019A20030A4F58285F0831208F6F528E53075F04B
:1019B20002A429F9EA35F0FA9000011208F6F5318D
:0A19C2000530D20A22C204438F1040
:0119CC0022F8
:10146900900000E014F0701F740AF0D20590002972
:10147900E014F07012740AF0D20890006DE014F0D4
:101489007005740AF0D20190002AA3E0FAA3E0F9EA
:10149900120B4490002DA3E0FAA3E0F9120B44903B
:1014A9000039A3E0FAA3E0F9120B44900045A3E048
:1014B900FAA3E0F9120B44900054A3E0FAA3E0F96F
:1014C900120B4490005DA3E0FAA3E0F9120B4490DB
:1014D900004BA3E0FAA3E0F9120B44EF600C900073
:1014E9001DA3E0FAA3E0F9120B4490004EA3E0FA21
:1014F900A3E0F9120B44EF600E900020A3E0FAA3D9
:10150900E0F9120B44D20BE52DD394004016D52DEA
:101519003030090C900023A3E0FAA3E0F9120B4440
:10152900D20C801D900051A3E0FAA3E0F9120B44FC
:10153900EF600E900023A3E0FAA3E0F9120B44D266
:0D1549000C900005A3E0FAA3E0F9020B44AA
:1017910090003FA3E0FAA3E0F9120B44900042A3AA
:1017A100E0FAA3E0F9120B44900033A3E0FAA3E0BE
:1017B100F9120B44900008A3E0FAA3E0F9120B44DC
:1017C100900030A3E0FAA3E0F9120B44EF600C9013
:1017D1000011A3E0FAA3E0F9120B44900036A3E054
:1017E100FAA3E0F9120B44EF600C900017A3E0FAA2
:1017F100A3E0F9120B44900048A3E0FAA3E0F91228
:101801000B44EF600C90001AA3E0FAA3E0F9120B6D
:101811004430060EC206900026A3E0FAA3E0F912B6
:031821000B442253
:101E0F0090000BA3E0FAA3E0F9120B4490003CA35F
:101E1F00E0FAA3E0F9120B44EF600C900014A3E07A
:101E2F00FAA3E0F9120B44900057A3E0FAA3E0F9EC
:0F1E3F00120B4490005AA3E0FAA3E0F9020B44FF
:101EEE00AF2CAE2BAD2AAC29900060120B2C9000BB
:101EFE0064E52FF0E4F52CF52BF52AF529F52F9056
:0B1F0E00000EA3E0FAA3E0F9020B4470
:101E4E00300705C207121942300D05C20D12146972
:101E5E00300505C205121791300805C208121E0F73
:101E6E00300105C201121EEEE52C2401F52CE435DD
:0E1E7E002BF52BE4352AF52AE43529F5292227
:101A4C008B358A368937EFB40C005070901A5FF8DA
:101A5C00282873021A83021A88021A8D021A92021B
:101A6C001A97021A9C021AA1021AA6021AAB021A9F
:101A7C00B0021AB5021ABA900005803590000880A1
:101A8C003090000B802B90000E802690001180214E
:101A9C00900017801C900014801790001A801290F0
:101AAC00001D800D90002080089000238003900082
:0D1ABC0026E535F0A3E536F0A3E537F0226E
:072133007B017A00796022B4
:07143900011F004100C70084
:0D20D80020A409751F019000C77401F022BB
:0220CA001551AE
:0920CC00A851A61FE4F51FE6FF70
:0320D50005512290
:10200D0090003C74FFF0A37420F0A374CAF090000C
:0D201D003974FFF0A37420F0A374D8F022F2
:02206500155113
:0A2067009000C7E0A851F6FFE4F076
:03207100055122F4
:10111C0000C400DC00F701060126014A01720188B7
:10112C0001B801EE020B024B029302E403100370B0
:10113C0003DC04160497052605C800DC00F701152E
:10114C000126014A0172019F01B801EE022A024BED
:10115C00029302E4033F037003DC04550497052655
:10116C0005C8067D00F701150137014A0172019F80
:10117C0001D201EE022A026E029302E4033F03A4A1
:10118C0003DC045504DD057505C8067D0749010619
:10119C000126014A015D018801B801EE020B024BE8
:1011AC00029302BA0310037003DC0416049705269D
:1011BC000575062006E007B80126014A0172018870
:1011CC0001B801EE022A024B029302E403100370F1
:1011DC0003DC04550497052605C8062006E007B86D
:1011EC0008AA014A0172019F01B801EE022A026E9F
:1011FC00029302E4033F037003DC045504DD05266F
:10120C0005C8067D06E007B808AA09B9015D018882
:10121C0001B801D2020B024B029302BA0310037005
:10122C0003A40416049705260575062006E0074955
:06123C00082D092D0A4DEA
:101440004D00A403000000000000000000000000A8
:06163F008F358D368B375C
:101645001220F1EF60037F0122E537D394004006B5
:10165500E53794114028E537D394174006E53794CC
:1016650021401BE537D394274006E5379431400EDA
:10167500E537D394375007E535C394F950037F0315
:1016850022E537603DC4540F75F007A4FDACF0E5C5
:101695003575F015A42DFFE5F03CFEE53754077CC4
:1016A500002FFFEC3EFEEF25E0FFEE33FE74322FF8
:1016B500F58274E83EF583E493F539740193F53AC0
:1016C5008005E4F539F53AAF387E007C017D771267
:1016D5000945AD361C120957AD07AC06AF3AAE3910
:0316E500121AC90D
:0116E80022DF
:040B4A0015511551DB
:100B4E001220F1EF70047F0180027F009000A4E07C
:100B5E00FEB402047D0180027D00ED5F6003020E93
:100B6E003BEEB4030AE49000A2F0A3F0020E3B9019
:100B7E0000A5E0FFB4F3047E0180027E00EFB4F125
:100B8E00047F0180027F00EF4E603E9000A7E0FEE2
:100B9E0075F06484FFEE75F00A8475F00A84ADF08A
:100BAE00E075F00A84ABF075420A9000A6E02407C7
:100BBE00F5439000A1E0FEC4540F240AF544754598
:100BCE000AEE5407F546121FB19000A5E0FFB4F3EC
:100BDE00047E0180027E00EFB4F2047F0180027F6A
:100BEE0000EF4E7003020C949000A7E0FD7C007E97
:100BFE00177F70120957A851A607E6F975F002A4DF
:100C0E00FFC39000B0E09F9000AFE095F05070E011
:100C1E00FEA3E0FF7C007D0B120945E9FBFD1209E6
:100C2E0057A85108A6079000AFE475F0011209C24B
:100C3E00FED3E5F09BEE94004018A85108E624F987
:100C4E00FFE47EF0A807088005CEC313CE13D8F9B3
:100C5E00801FA85108E6FF740F7E00A807088005C4
:100C6E00C333CE33CED8F97804CEA2E713CE13D841
:100C7E00F8A85108F6A85108E6FF1221408007E4B3
:100C8E009000AFF0A3F09000ABE0FEA3E0FFC390A6
:100C9E0000AEE09F9000ADE09E4003020E351220A4
:100CAE00F1EF6003020E3B9000A8E0FBA3E0FAA375
:100CBE00E0F99000ADE0FEA3E0F5828E831208F617
:100CCE00FFD394375003020DD0EF241024FC50793B
:100CDE00604524FE7003020D7B147003020D9124F7
:100CEE00026003020DBF9000A8E0FBA3E0FAA3E0B0
:100CFE00F99000ADE475F0011209AC85F082F58330
:100D0E001208F69000A6F09000AEE004F0709890F5
:100D1E0000ADE004F080909000A8E0FBA3E0FAA301
:100D2E00E0F99000ADE475F0011209AC85F082F5A2
:100D3E00831208F69000A7F09000AEE004F0706EFB
:100D4E009000ADE004F0020CB59000A8E0FBA3E02B
:100D5E00FAA3E0F99000ADE475F0011209C285F036
:100D6E0082F5831208F69000A5F0020CB59000AD46
:100D7E00E475F0011209ACAFF09000A2F0A3EFF011
:100D8E00020CB59000A2E0FEA3E0FF4E60129000B0
:100D9E00ADEEF0A3EFF0E49000A2F0A3F0020CB5DC
:100DAE009000AEE004F070069000ADE004F0020C8E
:100DBE00B59000AEE004F070069000ADE004F002D5
:100DCE000CB59000ABE0FEA3E0FFC39000AEE09F39
:100DDE009000ADE09E50569000A8E0FBA3E0FAA371
:100DEE00E0F99000ADE475F0011209C285F082F5CC
:100DFE00831208F69000A1F09000A6E0FFA3E0FD9C
:100E0E00A3E0FBA3E0FAA3E0F99000ADE475F001D6
:100E1E001209C285F082F5831208F6F5389000A10A
:0D0E2E00E0FB12163F80069000A47403F054
:050E3B000551055122E4
:0F20740090004274FFF0A3740BF0A3744AF022A3
:101BB8009000A4E0B4030DE49000ADF0A3F0A3F00E
:101BC800A3F0C210EF60049000A7F0ED600490004D
:101BD800A6F0E94A60047F0180027F00E53B453AB0
:101BE80060047E0180027E00EE5F60139000A8EB27
:101BF800F0A3EAF0A3E9F0A3E53AF0A3E53BF0E5AA
:081C08003C60049000A5F022ED
:101F4100BF02047E0180027E00BF01047D01800288
:101F51007D00ED4EFEBF03047D0180027D00ED4E4C
:081F610060059000A4EFF022DE
:06214C009000A4E0FF2258
:1014500055008C00000000000000000000000000AB
:08146000000001000000000083
:03002300020FECDD
:100FEC00C0E0C0F0C083C082C0D075D000C000C0CB
:100FFC0001C002C003C004C005C006C00730993B45
:10100C00C299900091E0FEA3E0FFC3900090E09F96
:10101C0090008FE09E501F90008CE0FBA3E0FAA3A1
:10102C00E0F9A3E475F0011209C285F082F5831290
:10103C0008F6F5998005900093E4F02098030211CE
:10104C0001C298300B09C20B900099E4F0A3F09008
:10105C000097E0FEA3E0FFA3E0FCA3E0FDC39FEC40
:10106C009E5077900094E0FBA3E0FAA3E0F98D8208
:10107C008C83E59912092390009FE0FEA3E0FFC347
:10108C00ED9FEC9E5046900097E0FCA3E0FDEF9D99
:10109C00EE9C503890009CE0FBA3E0FAA3E0F990A2
:1010AC000099E0FEA3E0FFF5828E831208F6FD9016
:1010BC000094E0FBA3E0FAA3E0F98F828E83120880
:1010CC00F66D600890009974FFF0A3F090009AE020
:1010DC0004F07006900099E004F0900097E0FEA3F5
:1010EC00E0FFC390009AE09F900099E09E4006902C
:1010FC00009B7401F0D007D006D005D004D003D0EB
:10110C0002D001D000D0D0D082D083D0F0D0E03249
:022083001551F5
:0A20850090009BE0A851F6FFE4F084
:03208F00055122D6
:101B41008F388E378D368C35759850438E40538E35
:101B5100FE53890FE47B04FAF9F8901FD1120B1C94
:101B6100120A63AB38AA37A936A835120A63EFF413
:101B710004F58BE47B04FAF9F8901FD1120B1C12C7
:101B81000A63AB38AA37A936A835120A63C3E49FA2
:101B9100FFE49EFE74019DFDE49CFC7808120AF5A9
:101BA1008F8DC2ABD28ED2AC90004E74FFF0A37475
:071BB10020F0A37483F02271
:101EBD00900094EBF0A3EAF0A3E9F0A3ECF0A3ED0E
:101ECD00F090009FE54FF0A3E550F090009CE54C9D
:101EDD00F0A3E54DF0A3E54EF0D20BE490009BF09E
:011EED0022D2
:101F6900900093E0701F90008CEBF0A3EAF0A3E9D6
:101F7900F0E4A3F0A3F0A3ECF0A3EDF0A37401F057
:081F8900D2997F02227F03229E
:0B20FD00900093E07002FF227F0122A0
:030000000218B62D
:0C18B600787FE4F6D8FD7581510218FD22
:10080000E709F608DFFA8046E709F208DFFA803EDA
:1008100088828C83E709F0A3DFFA8032E309F608C7
:10082000DFFA8078E309F208DFFA807088828C832F
:10083000E309F0A3DFFA806489828A83E0A3F608E3
:10084000DFFA805889828A83E0A3F208DFFA804CBD
:1008500080D280FA80C680D4806980F28033801094
:1008600080A680EA809A80A880DA80E280CA8033FD
:1008700089828A83ECFAE493A3C8C582C8CCC58375
:10088000CCF0A3C8C582C8CCC583CCDFE9DEE78045
:100890000D89828A83E493A3F608DFF9ECFAA9F0C4
:1008A000EDFB2289828A83ECFAE0A3C8C582C8CC1A
:1008B000C583CCF0A3C8C582C8CCC583CCDFEADE33
:1008C000E880DB89828A83E493A3F208DFF980CC95
:1008D00088F0EF60010E4E60C388F0ED2402B4048E
:1008E0000050B9F582EB2402B4040050AF23234535
:0608F00082239008507302
:1008F600BB010CE58229F582E5833AF583E02250B7
:1009060006E92582F8E622BBFE06E92582F8E22200
:0D091600E58229F582E5833AF583E493221A
:10092300F8BB010DE58229F582E5833AF583E8F00A
:10093300225006E92582C8F622BBFE05E92582C8B6
:02094300F2229E
:10094500EF8DF0A4A8F0CF8CF0A428CE8DF0A42EC6
:02095500FE2280
:10095700BC000BBE0029EF8DF084FFADF022E4CC84
:10096700F875F008EF2FFFEE33FEEC33FCEE9DEC4D
:10097700984005FCEE9DFE0FD5F0E9E4CEFD22ED93
:10098700F8F5F0EE8420D21CFEADF075F008EF2FDD
:10099700FFED33FD4007985006D5F0F222C398FDCE
:0509A7000FD5F0EA226B
:1009AC00C5F0F8A3E028F0C5F0F8E58215827002D6
:0609BC001583E038F02273
:1009C200A3F8E0C5F025F0F0E582158270021583E8
:0609D200E0C838F0E82245
:1009D800E88FF0A4CC8BF0A42CFCE98EF0A42CFCBE
:1009E8008AF0EDA42CFCEA8EF0A4CDA8F08BF0A43C
:1009F8002DCC3825F0FDE98FF0A42CCD35F0FCEB9B
:100A08008EF0A4FEA9F0EB8FF0A4CFC5F02ECD395F
:0F0A1800FEE43CFCEAA42DCE35F0FDE43CFC22CC
:100A270075F008758200EF2FFFEE33FECD33CDCC86
:100A370033CCC58233C5829BED9AEC99E582984009
:100A47000CF582EE9BFEED9AFDEC99FC0FD5F0D6E6
:100A5700E4CEFBE4CDFAE4CCF9A88222B800C1B910
:100A67000059BA002DEC8BF084CFCECDFCE5F0CB4E
:100A7700F97818EF2FFFEE33FEED33FDEC33FCEB87
:100A870033FB10D703994004EB99FB0FD8E5E4F942
:100A9700FA227818EF2FFFEE33FEED33FDEC33FC2F
:100AA700C933C910D7059BE99A4007EC9BFCE99A23
:100AB700F90FD8E0E4C9FAE4CCFB2275F010EF2F68
:100AC700FFEE33FEED33FDCC33CCC833C810D70768
:100AD7009BEC9AE899400AED9BFDEC9AFCE899F8A3
:0E0AE7000FD5F0DAE4CDFBE4CCFAE4C8F92236
:101D8B00C2D5E830E70FB2D5E4C39BFBE49AFAE483
:101D9B0099F9E498F8EC30E717B2D5121DC1120A85
:101DAB0063E4C39BFBE49AFAE499F9E498F88003A3
:101DBB00120A6330D50DE4C39FFFE49EFEE49DFD44
:041DCB00E49CFC2276
:100AF500E8600FECC313FCED13FDEE13FEEF13FFDF
:030B0500D8F12202
:100B0800E86010ECA2E713FCED13FDEE13FEEF1303
:040B1800FFD8F022F0
:100B1C00E493FC740193FD740293FE740393FF221F
:0C0B2C00ECF0A3EDF0A3EEF0A3EFF0223C
:0C0B3800A42582F582E5F03583F58322C8
:060B44008A838982E4733C
:1018C200021824E493A3F8E493A34003F68001F200
:1018D20008DFF48029E493A3F85407240CC8C33327
:1018E200C4540F4420C8834004F456800146F6DFF6
:1018F200E4800B0102040810204080901365E47E0E
:10190200019360BCA3FF543F30E509541FFEE493EA
:10191200A360010ECF54C025E060A840B8E493A3B1
:10192200FAE493A3F8E493A3C8C582C8CAC583CADC
:10193200F0A3C8C582C8CAC583CADFE9DEE780BE94
:011468000083
:00000001FF
