:1011CD0000A8C0003F065B4F666D7D077F6F00086E
:0E11DD0040014148BF86DBCFE6EDFD87FFEF06
:060BFE00011B0F011A00AB
:10114B00E51A602EE51BB48705751B0F8024E51B84
:10115B00B4C305751B87801AE51BB4E105751BC36A
:10116B008010E51BB4F005751BE18006E51B25E03F
:07117B00F51BAF1B02126C13
:100FB60012125D8F22E522B4011C75260A75270AD6
:100FC60075280A75290A752A0A7B0A7D0A7F011285
:100FD60011AD751A0122E522B4021B75260A752782
:100FE6000A75280A75290A752A0A7B0A7D0AE4FF0A
:060FF6001211ADE4F51A32
:010FFC0022D2
:100F6E001212081211EB7D07E4FF12124275260AC7
:100F7E0075270A75280A75290A752A0A7B0A7D0AB9
:100F8E007F0A1211ADAF1B12126C7BFF7A0F79B66E
:100F9E007F05120E4C7BFF7A11794B7F02120E4C9D
:080FAE0012127212110D80FBFA
:100A6D00E4F580900079E0FFB40800505F900A81B2
:100A7D00F8282873020A99020A9F020AA5020AABF6
:100A8D00020AB1020ABB020AC5020ACFC2A3C2A260
:100A9D008016C2A3C2A2801AC2A3C2A2801EC2A384
:100AAD00C2A28022C2A3D2A2C2A1C2A08020C2A390
:100ABD00D2A2C2A1D2A08016C2A3D2A2D2A1C2A09C
:100ACD00800CC2A3D2A2D2A1D2A08002D2A3C3EF26
:100ADD00648094885029900079E0FF3395E0FE748E
:100AED00702FF58274003EF583E0FF3395E0FE74C0
:100AFD00D12FF58274113EF583E493F580801E901D
:100B0D000079E0FFB408133395E0FE74702FF58281
:100B1D0074003EF583E0F5808003E4F58090006F6E
:100B2D00E0FF900079E004FEF0D3EF6480F8EE640E
:100B3D0080984014E0D36480948850047408F022A7
:090B4D0090006EE0900079F022A6
:10120800E4F5937594FF5395F043960F90002A7474
:0B121800FFF0A3740AF0A3746DF02235
:0912420090006EEFF0A3EDF02224
:1011AD00900070EFF0A3EDF0A3EBF0A3E526F0A314
:1011BD00E527F0A3E528F0A3E529F0A3E52AF02221
:06126C00900078EFF02273
:100C0400011E0041007D0041007A0541007B8341C3
:030C1400007C83DE
:1010440020920690007BE014F090007AE014F07097
:10105400347405F0A3E0FFC39480500EA3E09480A1
:101064004018A37401F0F51E801090007CE0C39436
:10107400805007A37402F0751E0190007CEFF0907D
:05108400007B7483F005
:011089002244
:02123400151F84
:09123600A81FA61EE4F51EE6FF48
:03123F00051F2266
:1011EB0090003674FFF0A37412F0A37434F09000E7
:0D11FB003374FFF0A37410F0A37444F022CD
:07125D0090007DE0FFE4F0CA
:011264002267
:100C17004100000A4100290A41006D0A040E000044
:100C270000000114004600670000FFFF8FFFC10DA1
:100C3700C105C108C101C10E60240005FF127EFF76
:100C4700127EFF127EFF127EFF127EFF127EFF12C0
:100C57007EFF127EFF127EFF127EFF127EFF127E44
:100C67006036002AFF127EFF127EFF1278FF127E87
:100C7700FF1278FF127EFF1278FF127EFF127EFFAF
:100C8700127EFF1278FF1278FF1278FF1278FF1298
:0A0C97007EFF127EFF127EFF127E28
:01127E00224D
:031278007F0022D2
:100FFD00438E805389F07BE07A2879017800901137
:10100D00CD12089012108AEFF404F58A7BE07A284D
:10101D00790178009011CD12089012108AC3E49FC7
:10102D00FFE49EFE74019DFDE49CFC780812087C93
:07103D008F8CD28CD2A92296
:03000B00020F1CC5
:040F1C00C0E0C0D0A1
:100F2000D5080A75084C300D020514D20DA20372C3
:100F3000045036150AE50A7030850C0AD207300ACB
:100F400017E50D6007150D438F01801D538FFEC2FD
:100F5000B5D51615C20A8011050BE50BD3940640D2
:090F600008C203E5136002D20689
:050F6900D0D0D0E03201
:100EC900300E47C20E9011CD120890781012087C8E
:100ED9008E1C8F1D900003E0FEA3E0FFE4FCFD7B68
:100EE90019FAF9F812082DC006C007AE1CAF1DABE0
:100EF90007AA06E4F9F8D007D00612108A78031277
:100F0900087C900065EEF0A3EFF0900065E0FEA389
:020F1900E0FFF7
:010F1B0022B3
:09124B00900067E0FEA3E0FF2221
:09125400900067EEF0A3EFF02218
:1012230090006BEEF0A3EFF0900069ECF0A3EDF00B
:011233002298
:03127B00C2B422D8
:03003B00020B565F
:100B5600C0E0C083C082C0D075D000C004C005C04C
:030B660006C007BF
:100B690030DF04C2DF807D30DA04C2DA807630D922
:100B79003DC2D9AFFBEFFEADEB7C00E42DFFEC3EAF
:100B890020000E900001F0A3EFF075DB11D2008078
:100B990053FE900001E0FCA3E0FDC3EF9DFFEE9C36
:100BA900A3F0A3EFF075DB00C200D20E803630D877
:100BB90033C2D8900067E07002A3E06022B2B4901B
:100BC9000069E0FEA3E0F5EAEEF5FAA3E0FEA3E092
:100BD900FF90006AE02FF0900069E03EF08005C2C6
:040BE900B453DAFE29
:100BED00D007D006D005D004D0D0D082D083D0E0AD
:010BFD0032C5
:06127200120FFDD2AF22B5
:100DC1003004047F0180027F00200A047E0180023A
:100DD1007E00EE5F6074E515C395095068300236F8
:100DE100750D01E515131313541FAB17AA18A91993
:100DF100F582758300120800FFE515540704FEEF24
:100E0100A806088002C333D8FC30D70575160380C5
:100E11002F751601802AAB17AA18A91975F002E5DA
:100E210015A4F58285F083120800F50DE51575F01E
:100E310002A429F9EA35F0FA900001120800F5162A
:0A0E41000515D20A22C204438F10E7
:010E4B002284
:10098000900000E014F0701F740AF0D20590002966
:10099000E014F07012740AF0D20890006DE014F0C8
:1009A0007005740AF0D20190002AA3E0FAA3E0F9DE
:1009B0001208AC90002DA3E0FAA3E0F91208AC9065
:1009C0000039A3E0FAA3E0F91208AC900045A3E0D7
:1009D000FAA3E0F91208AC900054A3E0FAA3E0F9FE
:1009E0001208AC90005DA3E0FAA3E0F91208AC9005
:1009F000004BA3E0FAA3E0F91208ACEF600C900002
:100A00001DA3E0FAA3E0F91208AC90004EA3E0FAAF
:100A1000A3E0F91208ACEF600E900020A3E0FAA367
:100A2000E0F91208ACD20BE512D394004016D512AF
:100A30003030090C900023A3E0FAA3E0F91208ACCF
:100A4000D20C801D900051A3E0FAA3E0F91208AC8B
:100A5000EF600E900023A3E0FAA3E0F91208ACD2F5
:0D0A60000C900005A3E0FAA3E0F90208AC39
:100CA20090003FA3E0FAA3E0F91208AC900042A33F
:100CB200E0FAA3E0F91208AC900033A3E0FAA3E053
:100CC200F91208AC900008A3E0FAA3E0F91208AC0C
:100CD200900030A3E0FAA3E0F91208ACEF600C90A8
:100CE2000011A3E0FAA3E0F91208AC900036A3E0E9
:100CF200FAA3E0F91208ACEF600C900017A3E0FA37
:100D0200A3E0F91208AC900048A3E0FAA3E0F912BC
:100D120008ACEF600C90001AA3E0FAA3E0F9120805
:100D2200AC30060EC206900026A3E0FAA3E0F91248
:030D320008AC22E8
:1010CE0090000BA3E0FAA3E0F91208AC90003CA349
:1010DE00E0FAA3E0F91208ACEF600C900014A3E064
:1010EE00FAA3E0F91208AC900057A3E0FAA3E0F9D6
:0F10FE001208AC90005AA3E0FAA3E0F90208AC84
:10118200AF11AE10AD0FAC0E9000601208A090002F
:1011920064E514F0E4F511F510F50FF50EF5149071
:0B11A200000EA3E0FAA3E0F90208AC85
:10110D00300705C207120DC1300D05C20D12098041
:10111D00300505C205120CA2300805C2081210CE0A
:10112D00300105C201121182E5112401F511E435DA
:0E113D0010F510E4350FF50FE4350EF50E2217
:100E4C008B228A238924EFB40C005070900E5FF82B
:100E5C00282873020E83020E88020E8D020E920257
:100E6C000E97020E9C020EA1020EA6020EAB020EF3
:100E7C00B0020EB5020EBA900005803590000880C5
:100E8C003090000B802B90000E802690001180215A
:100E9C00900017801C900014801790001A801290FC
:100EAC00001D800D9000208008900023800390008E
:0D0EBC0026E522F0A3E523F0A3E524F022B3
:071265007B017A0079602291
:03000000020D35B9
:0C0D3500787FE4F6D8FD75812A020D7C61
:10080000BB010CE58229F582E5833AF583E02250AD
:1008100006E92582F8E622BBFE06E92582F8E222F7
:0D082000E58229F582E5833AF583E4932211
:10082D00E88FF0A4CC8BF0A42CFCE98EF0A42CFC6A
:10083D008AF0EDA42CFCEA8EF0A4CDA8F08BF0A4E8
:10084D002DCC3825F0FDE98FF0A42CCD35F0FCEB47
:10085D008EF0A4FEA9F0EB8FF0A4CFC5F02ECD390C
:0F086D00FEE43CFCEAA42DCE35F0FDE43CFC2279
:10108A00C2D5E830E70FB2D5E4C39BFBE49AFAE491
:10109A0099F9E498F8EC30E717B2D51210C01208A3
:1010AA00EEE4C39BFBE49AFAE499F9E498F8800326
:1010BA001208EE30D50DE4C39FFFE49EFEE49DFDC9
:0410CA00E49CFC2284
:10087C00E86010ECA2E713FCED13FDEE13FEEF1392
:04088C00FFD8F0227F
:10089000E493FC740193FD740293FE740393FF22AE
:0C08A000ECF0A3EDF0A3EEF0A3EFF022CB
:0608AC008A838982E473D7
:100D4100020F6EE493A3F8E493A34003F68001F24B
:100D510008DFF48029E493A3F85407240CC8C333B3
:100D6100C4540F4420C8834004F456800146F6DF82
:100D7100E4800B0102040810204080900BFEE47E09
:100D8100019360BCA3FF543F30E509541FFEE49377
:100D9100A360010ECF54C025E060A840B8E493A33E
:100DA100FAE493A3F8E493A3C8C582C8CAC583CA69
:100DB100F0A3C8C582C8CAC583CADFE9DEE780BE21
:010CA1000052
:1008B20075F008758200EF2FFFEE33FECD33CDCCFD
:1008C20033CCC58233C5829BED9AEC99E582984080
:1008D2000CF582EE9BFEED9AFDEC99FC0FD5F0D65D
:1008E200E4CEFBE4CDFAE4CCF9A88222B800C1B987
:1008F2000059BA002DEC8BF084CFCECDFCE5F0CBC5
:10090200F97818EF2FFFEE33FEED33FDEC33FCEBFD
:1009120033FB10D703994004EB99FB0FD8E5E4F9B8
:10092200FA227818EF2FFFEE33FEED33FDEC33FCA5
:10093200C933C910D7059BE99A4007EC9BFCE99A99
:10094200F90FD8E0E4C9FAE4CCFB2275F010EF2FDE
:10095200FFEE33FEED33FDCC33CCC833C810D707DE
:100962009BEC9AE899400AED9BFDEC9AFCE899F819
:0E0972000FD5F0DAE4CDFBE4CCFAE4C8F922AC
:00000001FF
