:1017F60000A8C0003F065B4F666D7D077F6F00083F
:1018060040014148BF86DBCFE6EDFD87FFEF2110A3
:081816002210231024102510FC
:10170F0078087C007D007BFF7A1879147E007F0AB1
:10171F001208D012186E1218AE1218DA7B007A0067
:10172F00790875170075180A7519F37DFA7F641219
:0F173F0015877F0112184612191D12178D80FB96
:04181E00151F151F5E
:101822001218FEA81FA60608A607A81FE6FE08E6CD
:0F183200FF4E600BEF24FFFFEE34FFFE1219078D
:05184100051F051F2238
:10186E0053B1EF43B21012192CE4F5D975DA49D2FF
:10187E00DE90003F74FFF0A37418F0A3741EF022E4
:08150F008E188F198C1A8D1B38
:101517001218FEEF4E7066AF1BAE1A121907C3E51D
:1015270019940AE5189400404BE47B18FAF9F890EF
:1015370017F6120AE7120A41C006C007AE18AF191C
:10154700AB07AA06E4F9F8D007D006120A41AB07A1
:10155700AA06AFF9EFFEADE97C00E42DFFEC3ECF24
:101567002BCF3AAD07FCAF03AE021218C9D2D8434E
:0F157700DA01800612192C53DAFE7F02227F035D
:011586002242
:0C18E9001218FEEF4E7002FF227F012259
:10101200E4F580900089E0FFB40800505F9010264C
:10102200F828287302103E02104402104A0210509F
:1010320002105602106002106A021074C2A3C2A209
:101042008016C2A3C2A2801AC2A3C2A2801EC2A3D9
:10105200C2A28022C2A3D2A2C2A1C2A08020C2A3E5
:10106200D2A2C2A1D2A08016C2A3D2A2D2A1C2A0F1
:10107200800CC2A3D2A2D2A1D2A08002D2A3C3EF7B
:10108200648094885029900089E0FF3395E0FE74D3
:10109200802FF58274003EF583E0FF3395E0FE7405
:1010A200FA2FF58274173EF583E493F580801E9043
:1010B2000089E0FFB408133395E0FE74802FF582B7
:1010C20074003EF583E0F5808003E4F58090007FB4
:1010D200E0FF900089E004FEF0D3EF6480F8EE6454
:1010E20080984014E0D36480948850047408F022FD
:0910F20090007EE0900089F022DC
:1018AE00E4F5937594FF5395F043960F90002A74C8
:0B18BE00FFF0A37410F0A37412F022DE
:0918F50090007EEFF0A3EDF0225B
:10188E00900080EFF0A3EDF0A3EBF0A3E515F0A32D
:10189E00E516F0A3E517F0A3E518F0A3E519F0227D
:06191700900088EFF022B1
:10124D004100000A4100290A41006D0A04280000EE
:10125D000000012E004600670000FFFF8FFFC10D4B
:10126D00C105C108C101C10E60240005FF192FFF82
:10127D00192FFF192FFF192FFF192FFF192FFF19E5
:10128D002FFF192FFF192FFF192FFF192FFF192FBF
:10129D006036002AFF192FFF192FFF1929FF192F6B
:1012AD00FF1929FF192FFF1929FF192FFF192FFFDB
:1012BD00192FFF1929FF1929FF1929FF1929FF19BD
:0A12CD002FFF192FFF192FFF192F13
:01192F002295
:031929007F00221A
:10168400438E805389F07BE07A28790178009017A3
:10169400F6120AE71216CBEFF404F58A7BE07A28F7
:1016A400790178009017F6120AE71216CBC3E49F6B
:1016B400FFE49EFE74019DFDE49CFC7808120AD3AD
:0716C4008F8CD28CD2A92209
:03000B00021632A8
:04163200C0E0C0D084
:10163600D5220A75224C300D02052ED20DA2037258
:101646000450361524E5247030852624D207300A46
:1016560017E52760071527438F01801D538FFEC2AC
:10166600B5D53015C20A80110525E525D394064067
:0916760008C203E52D6002D20652
:05167F00D0D0D0E032E4
:1015DF00300E47C20E9017F6120AE77810120AD390
:1015EF008E348F35900003E0FEA3E0FFE4FCFD7B1B
:1015FF0019FAF9F81209B6C006C007AE34AF35AB09
:10160F0007AA06E4F9F8D007D0061216CB78031212
:10161F000AD3900065EEF0A3EFF0900065E0FEA313
:02162F00E0FFDA
:011631002296
:0918FE00900067E0FEA3E0FF2268
:09190700900067EEF0A3EFF0225E
:1018C90090006BEEF0A3EFF0900069ECF0A3EDF05F
:0118D90022EC
:03192C00C2B42220
:03003B000211A50A
:1011A500C0E0C083C082C0D075D000C004C005C0F7
:0311B50006C0076A
:1011B80030DF04C2DF807D30DA04C2DA807630D9CD
:1011C8003DC2D9AFFBEFFEADEB7C00E42DFFEC3E5A
:1011D80020000E900001F0A3EFF075DB11D2008023
:1011E80053FE900001E0FCA3E0FDC3EF9DFFEE9CE1
:1011F800A3F0A3EFF075DB00C200D20E803630D822
:1012080033C2D8900067E07002A3E06022B2B490C5
:101218000069E0FEA3E0F5EAEEF5FAA3E0FEA3E03C
:10122800FF90006AE02FF0900069E03EF08005C270
:04123800B453DAFED3
:10123C00D007D006D005D004D0D0D082D083D0E057
:01124C00326F
:06191D00121684D2AF2275
:101407003004047F0180027F00200A047E018002ED
:101417007E00EE5F6074E52FC39523506830023677
:10142700752701E52F131313541FAB31AA32A933C4
:10143700F5827583001208F6FFE52F540704FEEFC7
:10144700A806088002C333D8FC30D705753003805F
:101457002F753001802AAB31AA32A93375F002E526
:101467002FA4F58285F0831208F6F527E52F75F08E
:1014770002A429F9EA35F0FA9000011208F6F530CE
:0A148700052FD20A22C204438F1081
:011491002238
:100F2500900000E014F0701F740AF0D205900029BB
:100F3500E014F07012740AF0D20890006DE014F01D
:100F45007005740AF0D20190002AA3E0FAA3E0F933
:100F5500120B0390002DA3E0FAA3E0F9120B039006
:100F65000039A3E0FAA3E0F9120B03900045A3E0D2
:100F7500FAA3E0F9120B03900054A3E0FAA3E0F9F9
:100F8500120B0390005DA3E0FAA3E0F9120B0390A6
:100F9500004BA3E0FAA3E0F9120B03EF600C9000FD
:100FA5001DA3E0FAA3E0F9120B0390004EA3E0FAAB
:100FB500A3E0F9120B03EF600E900020A3E0FAA363
:100FC500E0F9120B03D20BE52CD394004016D52C77
:100FD5003030090C900023A3E0FAA3E0F9120B03CB
:100FE500D20C801D900051A3E0FAA3E0F9120B0387
:100FF500EF600E900023A3E0FAA3E0F9120B03D2F1
:0D1005000C900005A3E0FAA3E0F9020B0334
:1012E80090003FA3E0FAA3E0F9120B03900042A399
:1012F800E0FAA3E0F9120B03900033A3E0FAA3E0AD
:10130800F9120B03900008A3E0FAA3E0F9120B030B
:10131800900030A3E0FAA3E0F9120B03EF600C9001
:101328000011A3E0FAA3E0F9120B03900036A3E042
:10133800FAA3E0F9120B03EF600C900017A3E0FA90
:10134800A3E0F9120B03900048A3E0FAA3E0F91216
:101358000B03EF600C90001AA3E0FAA3E0F9120B5C
:101368000330060EC206900026A3E0FAA3E0F912A5
:031378000B032242
:10174E0090000BA3E0FAA3E0F9120B0390003CA368
:10175E00E0FAA3E0F9120B03EF600C900014A3E083
:10176E00FAA3E0F9120B03900057A3E0FAA3E0F9F5
:0F177E00120B0390005AA3E0FAA3E0F9020B0349
:1017CB00AF2BAE2AAD29AC28900060120AF790001F
:1017DB0064E52EF0E4F52BF52AF529F528F52E9086
:0B17EB00000EA3E0FAA3E0F9020B03DC
:10178D00300705C207121407300D05C20D120F25C3
:10179D00300505C2051212E8300805C20812174EB1
:1017AD00300105C2011217CBE52B2401F52BE435D1
:0E17BD002AF52AE43529F529E43528F52822F5
:101492008B1C8A1D891EEFB40C0050709014A5F8A5
:1014A2002828730214C90214CE0214D30214D802DB
:1014B20014DD0214E20214E70214EC0214F1021425
:1014C200F60214FB0215009000058035900008809A
:1014D2003090000B802B90000E802690001180210E
:1014E200900017801C900014801790001A801290B0
:1014F200001D800D90002080089000238003900042
:0D15020026E51CF0A3E51DF0A3E51EF02278
:071910007B017A00796022DF
:100DFF0000C400DC00F701060126014A01720188D8
:100E0F0001B801EE020B024B029302E403100370D0
:100E1F0003DC04160497052605C800DC00F701154E
:100E2F000126014A0172019F01B801EE022A024B0D
:100E3F00029302E4033F037003DC04550497052675
:100E4F0005C8067D00F701150137014A0172019FA0
:100E5F0001D201EE022A026E029302E4033F03A4C1
:100E6F0003DC045504DD057505C8067D0749010639
:100E7F000126014A015D018801B801EE020B024B08
:100E8F00029302BA0310037003DC041604970526BD
:100E9F000575062006E007B80126014A0172018890
:100EAF0001B801EE022A024B029302E40310037011
:100EBF0003DC04550497052605C8062006E007B88D
:100ECF0008AA014A0172019F01B801EE022A026EBF
:100EDF00029302E4033F037003DC045504DD05268F
:100EEF0005C8067D06E007B808AA09B9015D0188A3
:100EFF0001B801D2020B024B029302BA0310037026
:100F0F0003A40416049705260575062006E0074975
:060F1F00082D092D0A4D0A
:1012D7004D00710300000000000000000000000046
:0610FB008F128D138B140F
:101101001218E9EF60037F0122E514D39400400631
:10111100E51494114028E514D394174006E514947E
:1011210021401BE514D394274006E5149431400E69
:10113100E514D394375007E512C394F950037F03A4
:1011410022E514603DC4540F75F007A4FDACF0E531
:101151001275F015A42DFFE5F03CFEE51454077C53
:10116100002FFFEC3EFEEF25E0FFEE33FE74152F5E
:10117100F58274E53EF583E493F516740193F51752
:101181008005E4F516F517AF157E007C017D771219
:101191000923AD131C120935AD07AC06AF17AE1606
:0311A10012150F15
:0111A4002228
:040B0900151F151F80
:100B0D001218E9EF70047F0180027F00900071E000
:100B1D00FEB402047D0180027D00ED5F6003020DD5
:100B2D00FAEEB4030AE490006FF0A3F0020DFA9010
:100B3D000072E0FFB4F3047E0180027E00EFB4F199
:100B4D00047F0180027F00EF4E603E900074E0FE56
:100B5D0075F06484FFEE75F00A8475F00A84ADF0CB
:100B6D00E075F00A84ABF075150A900073E0240768
:100B7D00F51690006EE0FEC4540F240AF517751893
:100B8D000AEE5407F51912188E900072E0FFB4F3B7
:100B9D00047E0180027E00EFB4F2047F0180027FAB
:100BAD0000EF4E7003020C53900074E0FD7C007E4C
:100BBD00177F70120935A81FA607E6F975F002A474
:100BCD00FFC390007DE09F90007CE095F05070E0B9
:100BDD00FEA3E0FF7C007D0B120923E9FBFD12094A
:100BED0035A81F08A60790007CE475F0011209A036
:100BFD00FED3E5F09BEE94004018A81F08E624F9FB
:100C0D00FFE47EF0A807088005CEC313CE13D8F9F4
:100C1D00801FA81F08E6FF740F7E00A80708800537
:100C2D00C333CE33CED8F97804CEA2E713CE13D882
:100C3D00F8A81F08F6A81F08E6FF1219178007E489
:100C4D0090007CF0A3F0900078E0FEA3E0FFC3904D
:100C5D00007BE09F90007AE09E4003020DF4121895
:100C6D00E9EF6003020DFA900075E0FBA3E0FAA333
:100C7D00E0F990007AE0FEA3E0F5828E831208F68B
:100C8D00FFD394375003020D8FEF241024FC5079BD
:100C9D00604524FE7003020D3A147003020D5024BA
:100CAD00026003020D7E900075E0FBA3E0FAA3E065
:100CBD00F990007AE475F00112098A85F082F583C6
:100CCD001208F6900073F090007BE004F07098909D
:100CDD00007AE004F08090900075E0FBA3E0FAA3A9
:100CED00E0F990007AE475F00112098A85F082F539
:100CFD00831208F6900074F090007BE004F0706EA3
:100D0D0090007AE004F0020C74900075E0FBA3E013
:100D1D00FAA3E0F990007AE475F0011209A085F0CC
:100D2D0082F5831208F6900072F0020C7490007A2E
:100D3D00E475F00112098AAFF090006FF0A3EFF0A7
:100D4D00020C7490006FE0FEA3E0FF4E6012900065
:100D5D007AEEF0A3EFF0E490006FF0A3F0020C74C4
:100D6D0090007BE004F0700690007AE004F0020C35
:100D7D007490007BE004F0700690007AE004F002BD
:100D8D000C74900078E0FEA3E0FFC390007BE09F21
:100D9D0090007AE09E5056900075E0FBA3E0FAA318
:100DAD00E0F990007AE475F0011209A085F082F562
:100DBD00831208F690006EF0900073E0FFA3E0FD43
:100DCD00A3E0FBA3E0FAA3E0F990007AE475F0014B
:100DDD001209A085F082F5831208F6F51590006EC4
:0D0DED00E0FB1210FB80069000717403F013
:050DFA00051F051F228A
:0F18DA0090004274FFF0A3740BF0A37409F02286
:10158700900071E0B4030DE490007AF0A3F0A3F0AB
:10159700A3F0C20FEF6004900074F0ED60049000B8
:1015A70073F0E94A60047F0180027F00E518451760
:1015B70060047E0180027E00EE5F6013900075EB91
:1015C700F0A3EAF0A3E9F0A3E517F0A3E518F0E527
:0815D700196004900072F0227B
:10184600BF02047E0180027E00BF01047D0180028A
:101856007D00ED4EFEBF03047D0180027D00ED4E4E
:081866006005900071EFF02213
:06192300900071E0FF22BC
:0300000002137B6D
:0C137B00787FE4F6D8FD7581350213C2BE
:10080000E709F608DFFA8046E709F208DFFA803EDA
:1008100088828C83E709F0A3DFFA8032E309F608C7
:10082000DFFA8078E309F208DFFA807088828C832F
:10083000E309F0A3DFFA806489828A83E0A3F608E3
:10084000DFFA805889828A83E0A3F208DFFA804CBD
:1008500080D280FA80C680D4806980F28033801094
:1008600080A680EA809A80A880DA80E280CA8033FD
:1008700089828A83ECFAE493A3C8C582C8CCC58375
:10088000CCF0A3C8C582C8CCC583CCDFE9DEE78045
:100890000D89828A83E493A3F608DFF9ECFAA9F0C4
:1008A000EDFB2289828A83ECFAE0A3C8C582C8CC1A
:1008B000C583CCF0A3C8C582C8CCC583CCDFEADE33
:1008C000E880DB89828A83E493A3F208DFF980CC95
:1008D00088F0EF60010E4E60C388F0ED2402B4048E
:1008E0000050B9F582EB2402B4040050AF23234535
:0608F00082239008507302
:1008F600BB010CE58229F582E5833AF583E02250B7
:1009060006E92582F8E622BBFE06E92582F8E22200
:0D091600E58229F582E5833AF583E493221A
:10092300EF8DF0A4A8F0CF8CF0A428CE8DF0A42EE8
:02093300FE22A2
:10093500BC000BBE0029EF8DF084FFADF022E4CCA6
:10094500F875F008EF2FFFEE33FEEC33FCEE9DEC6F
:10095500984005FCEE9DFE0FD5F0E9E4CEFD22EDB5
:10096500F8F5F0EE8420D21CFEADF075F008EF2FFF
:10097500FFED33FD4007985006D5F0F222C398FDF0
:050985000FD5F0EA228D
:10098A00C5F0F8A3E028F0C5F0F8E58215827002F8
:06099A001583E038F02295
:1009A000A3F8E0C5F025F0F0E5821582700215830A
:0609B000E0C838F0E82267
:1009B600E88FF0A4CC8BF0A42CFCE98EF0A42CFCE0
:1009C6008AF0EDA42CFCEA8EF0A4CDA8F08BF0A45E
:1009D6002DCC3825F0FDE98FF0A42CCD35F0FCEBBD
:1009E6008EF0A4FEA9F0EB8FF0A4CFC5F02ECD3982
:0F09F600FEE43CFCEAA42DCE35F0FDE43CFC22EF
:100A050075F008758200EF2FFFEE33FECD33CDCCA8
:100A150033CCC58233C5829BED9AEC99E58298402B
:100A25000CF582EE9BFEED9AFDEC99FC0FD5F0D608
:100A3500E4CEFBE4CDFAE4CCF9A88222B800C1B932
:100A45000059BA002DEC8BF084CFCECDFCE5F0CB70
:100A5500F97818EF2FFFEE33FEED33FDEC33FCEBA9
:100A650033FB10D703994004EB99FB0FD8E5E4F964
:100A7500FA227818EF2FFFEE33FEED33FDEC33FC51
:100A8500C933C910D7059BE99A4007EC9BFCE99A45
:100A9500F90FD8E0E4C9FAE4CCFB2275F010EF2F8A
:100AA500FFEE33FEED33FDCC33CCC833C810D7078A
:100AB5009BEC9AE899400AED9BFDEC9AFCE899F8C5
:0E0AC5000FD5F0DAE4CDFBE4CCFAE4C8F92258
:1016CB00C2D5E830E70FB2D5E4C39BFBE49AFAE44A
:1016DB0099F9E498F8EC30E717B2D5121701120A12
:1016EB0041E4C39BFBE49AFAE499F9E498F880038C
:1016FB00120A4130D50DE4C39FFFE49EFEE49DFD2D
:04170B00E49CFC223C
:100AD300E86010ECA2E713FCED13FDEE13FEEF1339
:040AE300FFD8F02226
:100AE700E493FC740193FD740293FE740393FF2255
:0C0AF700ECF0A3EDF0A3EEF0A3EFF02272
:060B03008A838982E4737D
:1013870002170FE493A3F8E493A34003F68001F256
:1013970008DFF48029E493A3F85407240CC8C33367
:1013A700C4540F4420C8834004F456800146F6DF36
:1013B700E4800B010204081020408090124DE47E67
:1013C700019360BCA3FF543F30E509541FFEE4932B
:1013D700A360010ECF54C025E060A840B8E493A3F2
:1013E700FAE493A3F8E493A3C8C582C8CAC583CA1D
:1013F700F0A3C8C582C8CAC583CADFE9DEE780BED5
:0112E7000006
:00000001FF
