:1012740000A8C0003F065B4F666D7D077F6F0008C6
:1012840040014148BF86DBCFE6EDFD87FFEF00015B
:08129400020304050607080926
:030E0200012D00BF
:100BE100E52D75F00A84E5F090129293FFC007E5B8
:100BF1002DFB7A002401FFEA33FE7C007D0A1208F6
:100C01002D74922DF58274123CF583E493FDC00599
:100C1100EB2402FFEA33FE7C007D0A12082D749258
:100C21002DF58274123CF583E493FBE52D2403FF3B
:100C3100E433FE7C007D0A12082D74922DF5827436
:100C4100123CF583E493F525E52D2404FFE433FEFE
:100C51007C007D0A12082D74922DF58274123CF5E8
:100C610083E493F526E52D2405FFE433FE7C007D26
:100C71000A12082D74922DF58274123CF583E493C7
:100C8100F527E52D2406FFE433FE7C007D0A1208DA
:100C91002D74922DF58274123CF583E493F528E5C9
:100CA1002D2407FFE433FE7C007D0A12082D749287
:100CB1002DF58274123CF583E493F529D005D00714
:050CC1001212E4052DF4
:010CC600220B
:10131F001212C47DB47C007FB07E0412102412130D
:06132F007A12120B80FB94
:04129C00152E152EC8
:1012A00012135BA82EA60608A607A82EE6FE08E6DF
:0F12B000FF4E600BEF24FFFFEE34FFFE121364BE
:0512BF00052E052E22A2
:1012C40053B1EF43B210121383E4F5D975DA49D25E
:1012D400DE90003F74FFF0A37412F0A3749CF0221C
:081024008E1A8F1B8C1C8D1D20
:10102C0012135BEF4E7066AF1DAE1C121364C3E55A
:10103C001B940AE51A9400404BE47B18FAF9F890DB
:10104C0012741209941208EEC006C007AE1AAF1B38
:10105C00AB07AA06E4F9F8D007D0061208EEAB07E6
:10106C00AA06AFF9EFFEADE97C00E42DFFEC3ECF14
:10107C002BCF3AAD07FCAF03AE02121335D2D843D7
:0F108C00DA01800612138353DAFE7F02227F03FC
:01109B002232
:0C13460012135BEF4E7002FF227F0122A9
:100AF800E4F580900079E0FFB40800505F900B0C9B
:100B0800F8282873020B24020B2A020B30020B363A
:100B1800020B3C020B46020B50020B5AC2A3C2A2A4
:100B28008016C2A3C2A2801AC2A3C2A2801EC2A3F8
:100B3800C2A28022C2A3D2A2C2A1C2A08020C2A304
:100B4800D2A2C2A1D2A08016C2A3D2A2D2A1C2A010
:100B5800800CC2A3D2A2D2A1D2A08002D2A3C3EF9A
:100B6800648094885029900079E0FF3395E0FE7402
:100B7800702FF58274003EF583E0FF3395E0FE7434
:100B8800782FF58274123EF583E493F580801E90E9
:100B98000079E0FFB408133395E0FE74702FF582F6
:100BA80074003EF583E0F5808003E4F58090006FE3
:100BB800E0FF900079E004FEF0D3EF6480F8EE6483
:100BC80080984014E0D36480948850047408F0221C
:090BD80090006EE0900079F0221B
:10130400E4F5937594FF5395F043960F90002A7477
:0B131400FFF0A3740AF0A374F8F022AD
:0913520090006EEFF0A3EDF02213
:1012E400900070EFF0A3EDF0A3EBF0A3E525F0A3DD
:1012F400E526F0A3E527F0A3E528F0A3E529F022ED
:06137400900078EFF0226A
:100E05004100000A4100290A41006D0A040E000054
:100E150000000114004600670000FFFF8FFFC10DB1
:100E2500C105C108C101C10E60240005FF1386FF7D
:100E35001386FF1386FF1386FF1386FF1386FF13A2
:100E450086FF1386FF1386FF1386FF1386FF13861F
:100E55006036002AFF1386FF1386FF1380FF138673
:100E6500FF1380FF1386FF1380FF1386FF1386FF92
:100E75001386FF1380FF1380FF1380FF1380FF137A
:0A0E850086FF1386FF1386FF138615
:011386002244
:031380007F0022C9
:10114100438E805389F07BE07A28790178009012F0
:1011510074120994121188EFF404F58A7BE07A285D
:1011610079017800901274120994121188C3E49FD6
:10117100FFE49EFE74019DFDE49CFC780812098049
:071181008F8CD28CD2A92251
:03000B000210EFF1
:0410EF00C0E0C0D0CD
:1010F300D5080A75084C300D020514D20DA20372EF
:10110300045036150AE50A7030850C0AD207300AF6
:1011130017E50D6007150D438F01801D538FFEC228
:10112300B5D51615C20A8011050BE50BD3940640FD
:0911330008C203E5136002D206B4
:05113C00D0D0D0E0322C
:10109C00300E47C20E901274120994781012098007
:1010AC008E1E8F1F900003E0FEA3E0FFE4FCFD7B8F
:1010BC0019FAF9F8120863C006C007AE1EAF1FABD1
:1010CC0007AA06E4F9F8D007D006121188780312A3
:1010DC000980900065EEF0A3EFF0900065E0FEA3B0
:0210EC00E0FF23
:0110EE0022DF
:09135B00900067E0FEA3E0FF2210
:09136400900067EEF0A3EFF02207
:1013350090006BEEF0A3EFF0900069ECF0A3EDF0F8
:011345002285
:03138300C2B422CF
:03003B00020CC7ED
:100CC700C0E0C083C082C0D075D000C004C005C0DA
:030CD70006C0074D
:100CDA0030DF04C2DF807D30DA04C2DA807630D9B0
:100CEA003DC2D9AFFBEFFEADEB7C00E42DFFEC3E3D
:100CFA0020000E900001F0A3EFF075DB11D2008006
:100D0A0053FE900001E0FCA3E0FDC3EF9DFFEE9CC3
:100D1A00A3F0A3EFF075DB00C200D20E803630D804
:100D2A0033C2D8900067E07002A3E06022B2B490A8
:100D3A000069E0FEA3E0F5EAEEF5FAA3E0FEA3E01F
:100D4A00FF90006AE02FF0900069E03EF08005C253
:040D5A00B453DAFEB6
:100D5E00D007D006D005D004D0D0D082D083D0E03A
:010D6E003252
:06137A00121141D2AF2266
:100F1C003004047F0180027F00200A047E018002DD
:100F2C007E00EE5F6074E515C3950950683002369B
:100F3C00750D01E515131313541FAB17AA18A91936
:100F4C00F582758300120800FFE515540704FEEFC7
:100F5C00A806088002C333D8FC30D7057516038069
:100F6C002F751601802AAB17AA18A91975F002E57E
:100F7C0015A4F58285F083120800F50DE51575F0C2
:100F8C0002A429F9EA35F0FA900001120800F516CE
:0A0F9C000515D20A22C204438F108B
:010FA6002228
:100A0B00900000E014F0701F740AF0D205900029DA
:100A1B00E014F07012740AF0D20890006DE014F03C
:100A2B007005740AF0D20190002AA3E0FAA3E0F952
:100A3B001209B090002DA3E0FAA3E0F91209B090CF
:100A4B000039A3E0FAA3E0F91209B0900045A3E046
:100A5B00FAA3E0F91209B0900054A3E0FAA3E0F96D
:100A6B001209B090005DA3E0FAA3E0F91209B0906F
:100A7B00004BA3E0FAA3E0F91209B0EF600C900071
:100A8B001DA3E0FAA3E0F91209B090004EA3E0FA1F
:100A9B00A3E0F91209B0EF600E900020A3E0FAA3D7
:100AAB00E0F91209B0D20BE512D394004016D5121F
:100ABB003030090C900023A3E0FAA3E0F91209B03F
:100ACB00D20C801D900051A3E0FAA3E0F91209B0FB
:100ADB00EF600E900023A3E0FAA3E0F91209B0D265
:0D0AEB000C900005A3E0FAA3E0F90209B0A9
:100D6F0090003FA3E0FAA3E0F91209B0900042A36C
:100D7F00E0FAA3E0F91209B0900033A3E0FAA3E080
:100D8F00F91209B0900008A3E0FAA3E0F91209B034
:100D9F00900030A3E0FAA3E0F91209B0EF600C90D5
:100DAF000011A3E0FAA3E0F91209B0900036A3E016
:100DBF00FAA3E0F91209B0EF600C900017A3E0FA64
:100DCF00A3E0F91209B0900048A3E0FAA3E0F912EA
:100DDF0009B0EF600C90001AA3E0FAA3E0F9120932
:100DEF00B030060EC206900026A3E0FAA3E0F91277
:030DFF0009B02216
:1011CC0090000BA3E0FAA3E0F91209B090003CA345
:1011DC00E0FAA3E0F91209B0EF600C900014A3E060
:1011EC00FAA3E0F91209B0900057A3E0FAA3E0F9D2
:0F11FC001209B090005AA3E0FAA3E0F90209B07B
:10124900AF11AE10AD0FAC0E9000601209A4900062
:1012590064E514F0E4F511F510F50FF50EF51490A9
:0B126900000EA3E0FAA3E0F90209B0B8
:10120B00300705C207120F1C300D05C20D120A0B59
:10121B00300505C205120D6F300805C2081211CC3E
:10122B00300105C201121249E5112401F511E43513
:0E123B0010F510E4350FF50FE4350EF50E2218
:100FA7008B2A8A2B892CEFB40C005070900FBAF85B
:100FB700282873020FDE020FE3020FE8020FED028B
:100FC7000FF2020FF7020FFC0210010210060210C7
:100FD7000B02101002101590000580359000088054
:100FE7003090000B802B90000E80269000118021FE
:100FF700900017801C900014801790001A801290A0
:10100700001D800D90002080089000238003900031
:0D10170026E52AF0A3E52BF0A3E52CF0223E
:07136D007B017A0079602288
:03000000020E905D
:0C0E9000787FE4F6D8FD75812E020ED7A5
:10080000BB010CE58229F582E5833AF583E02250AD
:1008100006E92582F8E622BBFE06E92582F8E222F7
:0D082000E58229F582E5833AF583E4932211
:10082D00C2D5EC30E709B2D5E4C39DFDE49CFCEEE6
:10083D0030E715B2D5E4C39FFFE49EFE1209B6C39F
:10084D00E49DFDE49CFC80031209B630D507C3E49A
:06085D009FFFE49EFE2255
:10086300E88FF0A4CC8BF0A42CFCE98EF0A42CFC34
:100873008AF0EDA42CFCEA8EF0A4CDA8F08BF0A4B2
:100883002DCC3825F0FDE98FF0A42CCD35F0FCEB11
:100893008EF0A4FEA9F0EB8FF0A4CFC5F02ECD39D6
:0F08A300FEE43CFCEAA42DCE35F0FDE43CFC2243
:1008B20075F008758200EF2FFFEE33FECD33CDCCFD
:1008C20033CCC58233C5829BED9AEC99E582984080
:1008D2000CF582EE9BFEED9AFDEC99FC0FD5F0D65D
:1008E200E4CEFBE4CDFAE4CCF9A88222B800C1B987
:1008F2000059BA002DEC8BF084CFCECDFCE5F0CBC5
:10090200F97818EF2FFFEE33FEED33FDEC33FCEBFD
:1009120033FB10D703994004EB99FB0FD8E5E4F9B8
:10092200FA227818EF2FFFEE33FEED33FDEC33FCA5
:10093200C933C910D7059BE99A4007EC9BFCE99A99
:10094200F90FD8E0E4C9FAE4CCFB2275F010EF2FDE
:10095200FFEE33FEED33FDCC33CCC833C810D707DE
:100962009BEC9AE899400AED9BFDEC9AFCE899F819
:0E0972000FD5F0DAE4CDFBE4CCFAE4C8F922AC
:10118800C2D5E830E70FB2D5E4C39BFBE49AFAE492
:1011980099F9E498F8EC30E717B2D51211BE1208A5
:1011A800EEE4C39BFBE49AFAE499F9E498F8800327
:1011B8001208EE30D50DE4C39FFFE49EFEE49DFDCA
:0411C800E49CFC2285
:10098000E86010ECA2E713FCED13FDEE13FEEF138D
:04099000FFD8F0227A
:10099400E493FC740193FD740293FE740393FF22A9
:0C09A400ECF0A3EDF0A3EEF0A3EFF022C6
:0609B0008A838982E473D2
:100E9C0002131FE493A3F8E493A34003F68001F23A
:100EAC0008DFF48029E493A3F85407240CC8C33357
:100EBC00C4540F4420C8834004F456800146F6DF26
:100ECC00E4800B0102040810204080900E02E47EA6
:100EDC00019360BCA3FF543F30E509541FFEE4931B
:100EEC00A360010ECF54C025E060A840B8E493A3E2
:100EFC00FAE493A3F8E493A3C8C582C8CAC583CA0D
:100F0C00F0A3C8C582C8CAC583CADFE9DEE780BEC4
:010E8F000062
:1009B600BC000BBE0029EF8DF084FFADF022E4CC25
:1009C600F875F008EF2FFFEE33FEEC33FCEE9DECEE
:1009D600984005FCEE9DFE0FD5F0E9E4CEFD22ED34
:1009E600F8F5F0EE8420D21CFEADF075F008EF2F7E
:1009F600FFED33FD4007985006D5F0F222C398FD6F
:050A06000FD5F0EA220B
:00000001FF
